:100000000C947B000C94A3000C94A3000C94C90DD9
:100010000C94C90D0C94C90D0C94A3000C94A3006E
:100020000C94A3000C94A3000C94A3000C949F10B8
:100030000C94A3000C94A3000C94A3000C94A300B4
:100040000C941B090C94A3000C948B090C94650967
:100050000C94A3000C94A3000C94A3000C94A30094
:100060000C94F10E0C94A300C703EC03B503050434
:10007000240456044B045604560456048104D60343
:10008000030819086A071908BA0719084807EE068D
:1000900019081908190819081908BC05190899063A
:1000A0001908340700000000240027002A0000007F
:1000B0000000250028002B000404040404040404A8
:1000C0000202020202020303030303030102040803
:1000D00010204080010204081020010204081020B2
:1000E00000000008000201000003040700000000F7
:1000F00000000000171511241FBECFEFD8E0DEBFAF
:10010000CDBF12E0A0E0B1E0ECEAFFE202C0059052
:100110000D92A630B107D9F725E0A6E0B2E001C004
:100120001D92A932B207E1F710E0CBE7D0E004C09E
:100130002197FE010E949916CA37D107C9F70E947C
:1001400060110C94D4170C940000A82FB0E0A056B6
:10015000BB4F9C91292F30E0F901EE0FFF1F2E0FAE
:100160003F1FF901E658FB4FE081F0E09F01220FAD
:10017000331FE20FF31FEB5AFB4F80818F7B80838D
:1001800080919E04981306C0992379F09150909322
:100190009E040BC0882349F0E0919F04EF5FE09339
:1001A0009F04F0E0EB5FFD4F90838FEF8C930895F9
:1001B0009EEF980F923180F4E82FF0E0DF01A45F0A
:1001C000BB4F9C91913041F4EE0FFF1FE05EFB4F5F
:1001D000608371830C94550B0895CF93863080F51E
:1001E000409192025091930221E030E0672B81F41C
:1001F000B90102C0660F771F8A95E2F7CB0180959F
:10020000909584239523909393028093920218C033
:10021000082E02C0220F331F0A94E2F7242B352B3D
:1002200030939302209392029091B804911108C0E8
:10023000C82F0E94DE0BBC018C2FCF910C94BD09FE
:10024000CF9108958F929F92AF92BF92CF92DF92FB
:10025000EF92FF920F931F93CF93DF93833008F0B9
:1002600084C0982F990F990F990F58E0952E990EE9
:1002700094E1991510F444E1942E8B01D82FC82EE7
:10028000CC0CCC0CCC0CC0E0882483945B01BB2448
:10029000C91430F58EEF8C0D8231F8F44C2D50E0FE
:1002A000FA01E45FFB4F20812230B8F4882D90E002
:1002B0008A219B21DD24D394009709F4D12C7A0163
:1002C000EE0CFF1C213009F040C0C829F701E05EA8
:1002D000FB4F8D2D90E091838083880CC394D8CF01
:1002E000D11108C0F8946BB106270C7FC023C62734
:1002F000CBB929C0D130D1F40C23F89495B18C2F0F
:100300008F7380958923902F9F73892B85B998B11E
:10031000C295C695C695C370C0958C2F892302954A
:10032000069506950370C02FC82B0CC0CF70F894AB
:1003300088B16C2F660F660F60956823C023CC0FC1
:10034000CC0FC62BC8B9789410C0892B09F4BECF46
:10035000F701E05EFB4F80819181019709F4B6CFF0
:1003600062E08C2D0E94A20BB1CFDF91CF911F9143
:100370000F91FF90EF90DF90CF90BF90AF909F9044
:100380008F9008958F929F92AF92BF92CF92DF92FB
:10039000EF92FF920F931F93CF93DF93EB01843182
:1003A00008F00AC1082F10E0F801E45FFB4F9081CC
:1003B000933009F496C0943009F0FEC08250823127
:1003C00008F087C0F801E056FB4FE080F12C670190
:1003D000CC0CDD1C603282E078070CF042C077FD67
:1003E00005C0653B710524F4DB0104C0A0E001C039
:1003F000A4EBB0E0F601EE0DFF1DE658FB4F818146
:1004000028E830E04901881A910887FD9394880C08
:10041000991C880C991C092C000CAA08BB08828125
:1004200028E532E0281B310987FD3395220F331F61
:10043000220F331FA901330F660B770B9A01AB0113
:10044000281939094A095B090E94541624EB30E047
:1004500040E050E00E942A16820E931EA41EB51E94
:1004600001C04B01F601EE0DFF1DE658FB4F208148
:100470002C3078F5318188E890E0831B910937FDB5
:100480009395880F991F880F991F8816990684F0F5
:10049000828148E552E0481B510987FD5395440F7E
:1004A000551F440F551FC401481559050CF4CA01C6
:1004B0000297880F991F4FB7F89430E0F901EE0FBB
:1004C000FF1F2E0F3F1FF901EB5AFB4F92838183D1
:1004D0004FBF000F111FF801E05EFB4FD183C083B7
:1004E0006BC07B01D82F833049F08BEF800F8230B7
:1004F00028F087EF800F833008F057C061E08D2F20
:100500000E94A20BE114F10411F460E005C08FEF2A
:10051000E816F10429F461E08D2F0E94550B45C0C7
:10052000F801E052FF4FE491E330F9F048F4E13094
:10053000B9F0E230A1F584B5806284BDE8BC35C075
:10054000E730E9F0E83019F1E43049F580918000B6
:10055000806280938000F0928B00E0928A0025C038
:1005600084B5806884BDE7BC20C08091800080682D
:1005700080938000F0928900E092880016C08091FC
:10058000B00080688093B000E092B3000EC080910C
:10059000B00080628093B000E092B40006C080E8B2
:1005A000E816F1040CF0B7CFB0CF000F111FF8011F
:1005B000E05EFB4FF182E082DF91CF911F910F91BE
:1005C000FF90EF90DF90CF90BF90AF909F908F9073
:1005D0000895DB0190919E049C30A8F530919F0412
:1005E000682F70E0332369F0E32FF0E0EB5FFD4FFD
:1005F0008081FB01E056FB4F8083315030939F0494
:1006000007C0FB01E056FB4F90839F5F90939E04D1
:10061000FB01E056FB4F808190E09C01220F331FCD
:10062000820F931F1A161B0634F4141615061CF4B9
:100630009A01AD0104C020E639E040E252E086585C
:100640009B4F0C941F108DE291E00C946E0A8F92D8
:100650009F92BF92CF92DF92EF92FF920F931F93E0
:10066000CF93DF93C82ED12CE601C757DC4FFE0194
:10067000ED57FF4F90819F3709F443C1963041F405
:100680009091B704992321F06630710509F01DC1DE
:100690007B01182F0EEF080F0231F8F4643071055A
:1006A000E1F0F601E056FB4F80818C30B0F490E031
:1006B000FC01EE0FFF1F8E0F9F1FFC01E658FB4F42
:1006C000808190E0FC01EE0FFF1F8E0F9F1FFC0149
:1006D000EB5AFB4F808186FDFEC052EFB52EB10E66
:1006E00085E08B1558F061E070E082E0E816F104D7
:1006F00011F060E070E08B2D0E94ED00023118F5E2
:10070000E12FE695E695E695212F2770F0E0EC596C
:10071000FD4FE114F10421F08BE0E816F10449F4F7
:1007200081E090E001C0880F2A95EAF79081892B3B
:1007300009C081E090E001C0880F2A95EAF7809512
:100740009081892380834601880C991CF401E05E26
:10075000FB4F118210828CE0E816F10408F0A6C06D
:10076000F701EC5CFF4F0C94991685E08B1508F4AB
:10077000C8C0023120F460E0812F0E94A20BCD5747
:10078000DF4F88818F3709F4BCC082E08DC0023111
:1007900008F0B7C060E0812F0E94A20BCD57DF4F59
:1007A00088818F3709F4ADC01882ABC0023108F0E0
:1007B000A8C062E0812F0E94A20BCD57DF4F888135
:1007C0008F3711F08BE08883F401E05EFB4F81E00E
:1007D00090E09183808395C0023108F092C0FE01C1
:1007E000ED57FF4F8081833021F460E0812F0E941C
:1007F000550B61E0812F0E94A20BCD57DF4F8881FE
:100800008F3709F47EC081E04FC0133049F08BEF81
:10081000810F823028F087EF810F833008F071C09C
:1008200061E0812F0E94A20B61E0812F0E94A20B48
:1008300060E0812F0E94550BCD57DF4F88818F37A5
:1008400009F45FC083E030C0023108F05AC0CD57D0
:10085000DF4F88818F3711F084E08883F601E056FE
:10086000FB4F80818F3FD9F190E0FC01EE0FFF1F1D
:100870008E0F9F1FFC01E658FB4F808190E0FC012A
:10088000EE0FFF1F8E0F9F1FFC01EB5AFB4F808165
:1008900086FD37C024C01251123098F5CD57DF4F76
:1008A00088818F3771F186E088832BC081E491E0E5
:1008B000DF91CF911F910F91FF90EF90DF90CF903C
:1008C000BF909F908F900C946E0A1092B7049FEF88
:1008D00090930001DDCE812F0E94A500FECE4FEF48
:1008E0005FEF6FEF7FEF812FDF91CF911F910F911E
:1008F000FF90EF90DF90CF90BF909F908F900C94DF
:10090000E902DF91CF911F910F91FF90EF90DF905F
:10091000CF90BF909F908F900895FF920F931F9359
:10092000CF93DF9300D0CDB7DEB7082F10E0F801EA
:10093000EC59FD4F9081F62EF9220C541B4F4111BA
:1009400004C0F8019081F91611F12F2D30E03A839F
:100950002983A091C903B091CA031097B1F0682F01
:100960006F706069ED91FC9111970190F081E02D1D
:10097000CD01099522E030E0AE014F5F5F4F62E0AC
:1009800070E089EC93E00E94D30DF801F0820F90A3
:100990000F90DF91CF911F910F91FF9008958330B9
:1009A00020F5282F30E0F901E959FD4F6083672BCE
:1009B000E1F0F901EC59FD4F9081811103C069B15B
:1009C0006C7F0FC0813049F463B136B16F7340E47E
:1009D000349F90011124622B04C066B16C7366953C
:1009E0006695692341E00C948D040895EF92FF927F
:1009F0000F931F93CF93DF93D82F8B01C42FF22E29
:100A00006F3F8FEF7807F9F081E08093C802D093B1
:100A1000EA021092C9021092EB0289E494E00E946B
:100A2000220D8F2D0E94B10A8091520290915302A3
:100A30008230910550F0880F991F880F991F0597F4
:100A40000197F1F702C000E010E08091C702811128
:100A5000FCCF9C2FC13208F090E281E08093C70266
:100A60008093C6022FEF2093C5021092C402290F73
:100A70002093C3028093A2028091A2022D2F220F05
:100A8000822B8093A2028091A102813061F41092A6
:100A9000A1028091A2028093BB008091BC0083FDE3
:100AA000F8CF85EC01C085EE8093BC008091C70231
:100AB0008130E1F38091C402891710F49091C4024F
:100AC000E3EAF2E0A9EBB4E080E0891721F021919C
:100AD0002D938F5FFACF1092DA048093D904EC2E15
:100AE000F12C90E0E816F9061CF482E591E005C0CF
:100AF0008E159F0524F48FE691E00E946E0AD09334
:100B000012020093130202E112E0C80182519240E6
:100B10008E159F057CF40F5F1F4F9091D904809133
:100B2000DA04981739F089E494E00E94D90CF801AE
:100B30008183EBCFCE5F6C2F70E042E152E087E71C
:100B4000DF91CF911F910F91FF90EF900C94210AAC
:100B5000EF92FF920F931F93CF93DF9390E0FC01EE
:100B6000E956F109E231F10508F063C2EA01162FF6
:100B7000E05CFF4F0C9499162981922F987125FF04
:100B800003C08BE891E059C0888131E026FB222721
:100B900020F92327983061F160F491114AC2309313
:100BA000C8028093EA021092C9021092EB0202E09E
:100BB00006C09031E1F1983109F46EC03AC20117D4
:100BC00078F4FE01E00FF11D618167956627679556
:100BD0008081680F89E494E00E94220D0E5FEFCFC0
:100BE00081E00E94B10A83E191E00197F1F721C20F
:100BF0004B816A81163069F470E030E8439F600DE4
:100C0000711D11244D814795442747959C81490FBB
:100C100006C0479544274795460F6FEF7FEFDF915A
:100C2000CF911F910F91FF90EF900C94F604E091FB
:100C30000001E73054F08BEA91E0DF91CF911F91F2
:100C40000F91FF90EF900C946E0A9B813A81663071
:100C500071F4632F70E0F0E89F9F600D711D112407
:100C60009D819795992797954C81940F06C09795EC
:100C700099279795930F6FEF7FEFEF5FE093000158
:100C800035E0E302F0011124E659FD4F80837283C1
:100C9000618393832483CDC12091000112163CF41B
:100CA00090E0622F022E000C770B35E00FC08FEF23
:100CB00080930001BEC1349FF001359FF00D1124D7
:100CC000E659FD4F4081841739F09F5F492F50E06E
:100CD0006417750784F790E085E022C09830F8F437
:100CE000FA0131968E9FD0018F9FB00D1124A65925
:100CF000BD4F3C91849FF001859FF00D1124E65972
:100D0000FD4F308311964D915C9112975283418330
:100D100013963C911397338314963C9134839F5FD1
:100D2000492F50E064177507CCF62150209300013D
:100D300080C12981888190E0E0E82E9F800D911D7F
:100D40001124009721F090935302809352028091D6
:100D5000B70481116EC1C0E08EEE8C0F823028F492
:100D600066E070E08C2F0E942703CF5FC431A1F7AB
:100D700081E08093B7041092DA041092D9041092A3
:100D8000C9021092EB021092C7028093C602109221
:100D9000A10261E082E10E94550B61E083E10E94C3
:100DA000550B8091B9008E7F8093B9008091B90076
:100DB0008D7F8093B90088E48093B80085E48093A8
:100DC000BC0087EC9CE09093DC048093DB0488EC0F
:100DD0009CE09093DE048093DD042BC1653008F421
:100DE00028C118818EEF810F823108F022C109815C
:100DF000EA80FB80CC81E12FF0E0E056FB4F808160
:100E00008C30B0F490E0FC01EE0FFF1F8E0F9F1F9F
:100E1000FC01E658FB4F808190E0FC01EE0FFF1FC4
:100E20008E0F9F1FFC01EB5AFB4F808186FDFDC09A
:100E30004F2D50E0F0E8CF9F400D511D1124602F41
:100E400070E020E8E29E600D711D1124812F0E9448
:100E5000E90264E070E0812FDF91CF911F910F9143
:100E6000FF90EF900C942703623008F4E2C02981D0
:100E7000888190E030E8239F800D911D1124009718
:100E800011F481E090E09093020180930101D1C0C0
:100E9000623008F4CEC0698170E0123091F08A812E
:100EA000E0E88E9FC0011124682B792B133049F0A4
:100EB0008B8190E090E4899F902D88271124682BE6
:100EC000792B8881DF91CF911F910F91FF90EF9047
:100ED0000C94C20180EF0E94A40A8CE60E94A40A2E
:100EE000CEEF84EF8C0F863038F482E00E94A40AA3
:100EF0008AE00E94A40A09C0C13039F483E00E944C
:100F0000A40A88E00E94A40A08C08DEF8C0F8230EA
:100F1000A8F389EF8C0F833088F3C23130F484E07A
:100F20000E94A40A8EE00E94A40A80EF8C0F8230F7
:100F300030F486E00E94A40A81E00E94A40A8FE7B0
:100F40000E94A40ACF5FC23121F1C23150F680E085
:100F50000E94A40A81E00E94A40A8BE00E94A40AD5
:100F600081E00E94A40A81E00E94A40A81E00E941C
:100F7000A40AB7CF662309F45CC0C88180EF0E9441
:100F8000A40A8EE60E94A40A8C2F0E94A40AC431EF
:100F900048F087EFDF91CF911F910F91FF90EF9075
:100FA0000C94A40AD0E0FE01E45FFB4F80810E9414
:100FB000A40ACC0FDD1F8E01005E1B4FF80180815B
:100FC0008F770E94A40AF801808191819C0120788A
:100FD000232B39F0880F892F881F990B8F770E9458
:100FE000A40AC05EDB4F888199819C012227307C56
:100FF000232B79F2990F880B990F982F881F8F77E1
:101000000E94A40AC6CF80EF0E94A40A8AE60E942A
:10101000A40AC2EFC63010F48C2F01C08FE70E94E3
:10102000A40ACF5FC630B1F7B4CF812F0E94A500CC
:10103000FFCEDF91CF911F910F91FF90EF90089518
:10104000CF92DF92EF92FF920F931F93CF93DF9394
:101050006C017A018B01C0E0D0E0CE15DF0581F094
:10106000D8016D918D01D601ED91FC910190F08137
:10107000E02DC6010995892B11F02196EECF7E0156
:10108000C701DF91CF911F910F91FF90EF90DF90FB
:10109000CF900895FC01538D448D252F30E0842F8F
:1010A00090E0821B930B541710F0CF960895019790
:1010B0000895FC01918D828D981761F0828DDF017A
:1010C000A80FB11D5D968C91928D9F5F9F73928F3B
:1010D00090E008958FEF9FEF0895FC01918D828D30
:1010E000981731F0828DE80FF11D858D90E00895FD
:1010F0008FEF9FEF08950E94C0178CEE92E00E9440
:101100002F0C21E0892B09F420E0822F0895EF9223
:10111000FF920F931F93CF93DF93EC0181E0888FB1
:101120009B8D8C8D981305C0E889F989808185FD98
:1011300026C0F62E0B8D10E00F5F1F4F0F73112787
:10114000E02E8C8DE8120CC00FB607FCFACFE889B0
:10115000F989808185FFF5CFCE010E94A70DF1CFDF
:101160008B8DFE01E80FF11DE35AFF4FF0829FB710
:10117000F8940B8FEA89FB89808180620AC09FB74F
:10118000F894EE89FF896083E889F989808183700A
:10119000806480839FBF81E090E0DF91CF911F91B9
:1011A0000F91FF90EF900895CF93DF93EC01888D1E
:1011B0008823C9F0EA89FB89808185FD05C0A8895B
:1011C000B9898C9186FD0FC00FB607FCF5CF8081E1
:1011D00085FFF2CFA889B9898C9185FFEDCFCE012B
:1011E0000E94A70DE7CFDF91CF9108953FB7F89404
:1011F00080919D0290919E02A0919F02B091A002C9
:1012000026B5A89B05C02F3F19F00196A11DB11D61
:101210003FBFBA2FA92F982F8827820F911DA11D9C
:10122000B11DBC01CD0142E0660F771F881F991FD9
:101230004A95D1F708951F920F920FB60F9211247D
:101240002F933F938F939F93AF93BF938091990276
:1012500090919A02A0919B02B0919C0230919802C9
:1012600023E0230F2D3720F40196A11DB11D05C0E9
:1012700026E8230F0296A11DB11D209398028093AA
:10128000990290939A02A0939B02B0939C02809142
:101290009D0290919E02A0919F02B091A0020196A2
:1012A000A11DB11D80939D0290939E02A0939F0269
:1012B000B093A002BF91AF919F918F913F912F91D9
:1012C0000F900FBE0F901F9018951F920F920FB6A0
:1012D0000F9211242F933F934F935F936F937F93BC
:1012E0008F939F93AF93BF93EF93FF938CEE92E016
:1012F0000E94A70DFF91EF91BF91AF919F918F91A8
:101300007F916F915F914F913F912F910F900FBE01
:101310000F901F9018951F920F920FB60F921124E5
:101320002F938F939F93EF93FF93E091FC02F091A3
:10133000FD028081E0910203F091030382FD12C05F
:101340009081809105038F5F8F7320910603821730
:1013500051F0E0910503F0E0E451FD4F958F80934B
:10136000050301C08081FF91EF919F918F912F9193
:101370000F900FBE0F901F9018951F93CF93DF9380
:1013800000D0CDB7DEB7182F7A8369838091C90367
:101390009091CA03009709F44EC0DC01ED91FC91D5
:1013A0001031A8F46115704490F4612F606E0190C3
:1013B000F081E02D099522E030E0AE014F5F5F4FF4
:1013C00062E070E089EC93E00E94D30D34C001909C
:1013D000F081E02D60EF09958091C9039091CA03D7
:1013E000DC01ED91FC910190F081E02D6FE6099513
:1013F0008091C9039091CA03DC01ED91FC910190A9
:10140000F081E02D612F099522E030E0AE014F5FC1
:101410005F4F62E070E089EC93E00E94D30D809111
:10142000C9039091CA03DC01ED91FC910190F08118
:10143000E02D67EF09950F900F90DF91CF911F91ED
:101440000895EF92FF920F931F93CF93DF93C82FCE
:101450008091C9039091CA030097C9F17A018B0169
:10146000DC01ED91FC910190F081E02D60EF099598
:101470008091C9039091CA03DC01ED91FC91019028
:10148000F081E02D6C2F0995E7010E0D1F1DC0178F
:10149000D10759F020E030E0AE0161E070E089EC66
:1014A00093E00E94D30D2196F2CF8091C9039091D1
:1014B000CA03DC01ED91FC910190F081E02D67EF12
:1014C000DF91CF911F910F91FF90EF900994DF91E1
:1014D000CF911F910F91FF90EF900895FC01019023
:1014E0000020E9F73197BF01681B790BAC0181E758
:1014F0000C94210ACF93DF93FC01A081B181109756
:1015000001F1EC01ED91FC9111970190F081E02D3A
:1015100069EFCD01099588819981DC01ED91FC91FC
:101520000190F081E02D62E0099588819981DC01CC
:10153000ED91FC910190F081E02D65E0DF91CF917C
:101540000994DF91CF910895A0910704B091080408
:10155000ED91FC9111970190F081E02D682FCD0164
:101560000994282F3091EB02313208F04AC0809163
:10157000C7028111FCCF9091EA0242E04093C7027A
:101580002093C6022FEF2093C5021092C40230931D
:10159000C302EAECF2E0A3EAB2E020E0321721F065
:1015A00041914D932F5FFACF1092A2022091A20297
:1015B000990F922B9093A2029091A102913061F425
:1015C0001092A1029091A2029093BB009091BC0056
:1015D00093FDF8CF95EC01C095EE9093BC009091EF
:1015E000C7029230E1F39091C5029F3F79F080915C
:1015F000C502803241F08091C502803331F084E031
:1016000005C081E003C082E001C083E01092C902FE
:101610001092EB021092C80208951F93CF93DF93AC
:10162000182FEB018091CE039091CF0368177907B3
:10163000A8F0E091FB03F091FC0381E03097C1F04A
:101640008093CB038091E7039091E8030995809103
:10165000CE039091CF03C817D90748F48091CC03EB
:101660009091CD03C80FD91F188380E001C081E09D
:10167000DF91CF911F910895AC01FB0180E090E0D4
:101680009C01220F331F2417350770F4DB012C91C6
:10169000208311963C91379533273795232B21933F
:1016A00001966E5F7F4FECCF089590E0FC01E05211
:1016B000FF4F2491FC01E453FF4F3491FC01E854A7
:1016C000FF4FE491EE2309F43CC0222339F123308B
:1016D00091F038F42130A9F0223001F584B58F7DE6
:1016E00012C0273091F02830A1F02430B9F4809155
:1016F00080008F7D03C0809180008F778093800071
:101700000DC084B58F7784BD09C08091B0008F77FC
:1017100003C08091B0008F7D8093B000F0E0EE0FA9
:10172000FF1FE255FF4FA591B4919FB7F894611147
:1017300004C08C913095382302C0EC913E2B3C9331
:101740009FBF0895CF93DF9390E0FC01E453FF4FD8
:101750002491FC01E854FF4F8491882361F190E0CB
:10176000880F991FFC01EC55FF4FC591D491FC01E6
:10177000E255FF4FA591B491611109C09FB7F8944C
:101780008881209582238883EC912E230BC06230C0
:1017900061F49FB7F8948881322F30958323888332
:1017A000EC912E2B2C939FBF06C08FB7F894E88145
:1017B0002E2B28838FBFDF91CF9108958E3008F0B4
:1017C0008E508770806480937C0080917A00806462
:1017D00080937A0080917A0086FDFCCF809178001A
:1017E0002091790090E0922B08958F929F92AF9272
:1017F000BF92CF92DF92EF92FF926B017C010E9429
:10180000F6084B015C01C114D104E104F104F1F0CC
:101810000E94F608DC01CB0188199909AA09BB09C5
:10182000883E9340A105B10570F321E0C21AD108AA
:10183000E108F10888EE880E83E0981EA11CB11C17
:10184000C114D104E104F10419F7DDCFFF90EF904A
:10185000DF90CF90BF90AF909F908F900895FC0144
:10186000918D228D892F90E0805C9F4F821B910982
:101870008F739927089580E090E0892B29F00E94CA
:101880007D0881110C9400000895E0916202F091AE
:101890006302309709F009940895862F642FE09130
:1018A0006002F0916102309711F0A9010994089546
:1018B0000895862FE0915802F0915902309711F067
:1018C000BA0109940895862FE0915A02F0915B02C3
:1018D000309711F0BA0109940895862FE0915402CF
:1018E000F0915502309711F0BA0109940895862FAE
:1018F000E0915602F0915702309711F0BA01099425
:101900000895862FE0915C02F0915D02309711F00E
:10191000BA0109940895862FE0915E02F0915F026A
:10192000309711F0BA010994089585ED8093BC00B9
:101930008091BC0084FDFCCF1092C70208954091B5
:101940000005262F30E0240F311D21323105DCF453
:101950002091C7022430C9F4FC0180E090E0861792
:1019600058F4309100052191DC01A052BB4FA30F28
:10197000B11D2C930196F3CF80910005680F609301
:10198000000580E0089581E0089582E008950895BB
:1019900008950895E091DA048091D904E81730F4AD
:1019A000F0E0E754FB4F808190E008958FEF9FEFC8
:1019B00008959091DA048091D904981750F4E92F92
:1019C000F0E0E754FB4F208130E09F5F9093DA0412
:1019D00002C02FEF3FEFC90108958091D90490E034
:1019E0002091DA04821B91090895CF92DF92EF9241
:1019F000FF920F931F93CF93DF937C01CB018A015A
:101A00002091C802222389F0EB016B01C40ED51E80
:101A1000CC15DD0569F06991D701ED91FC9101903C
:101A2000F081E02DC7010995F3CF642F0E949F0C30
:101A3000C801DF91CF911F910F91FF90EF90DF9040
:101A4000CF900895CF93DF931F92CDB7DEB7698310
:101A50002091C8022223D1F02091EB02203240F0E5
:101A600021E030E0FC013383228380E090E015C068
:101A70008091C902E82FF0E0E653FD4F99819083F1
:101A80008F5F8093C9028093EB0205C061E0CE01B5
:101A900001960E949F0C81E090E00F90DF91CF9122
:101AA0000895089580E090E00895009721F0805C0B
:101AB0009F4F0C947A0A08950F931F93CF93DF934F
:101AC00081E08093B8048091B704882329F01092B4
:101AD000B7048FEF809300011092670210926402A6
:101AE0001092B40410926802109265021092B5042C
:101AF00010926902109266021092B60400EA14E095
:101B0000C0E0DFEF82EF8C0F863018F462E070E007
:101B100006C08EEF8C0F823128F461E070E08C2FCC
:101B20000E942703F801D1938F01CF5FC43151F791
:101B3000109293021092920210929F0410929E04AF
:101B40001092B804DF91CF911F910F910895FC017D
:101B5000848DDF01A80FB11DA35ABF4F2C91848D36
:101B600090E001968F739927848FA689B7892C936B
:101B7000A089B1898C91837080648C93938D848DBE
:101B8000981306C00288F389E02D80818F7D8083C1
:101B900008951F920F920FB60F9211240F900FBE4F
:101BA0000F901F9018953F924F925F926F927F9285
:101BB0008F929F92AF92BF92CF92DF92EF92FF925D
:101BC0000F931F93CF93DF935C016901DA013C907F
:101BD000232B19F4CC24CA94DC2C7A012A01460E5A
:101BE000571EC0E0D0E000E010E087E0682E712CC6
:101BF000E414F50409F443C00C151D0508F067C092
:101C00004701F50180819181D7016D917D010C2EF5
:101C100001C0660F0A94EAF763296F77DC01ED9142
:101C2000FC910190F081E02D09950F5F1F4FF401A9
:101C3000608170E0C3018C1B9D0B02C07595679598
:101C40008A95E2F7362E2196C730D10588F2C01664
:101C5000D10699F0D5018D919C91632D6F77DC01B0
:101C6000ED91FC910190F081E02D09950F5F1F4FE0
:101C7000331C3324331C2797E7CF8601B9CF209735
:101C800031F10C151D0518F5F5018081918161E098
:101C900070E001C0660FCA95EAF761506321DC016C
:101CA000ED91FC910190F081E02DDF91CF911F919A
:101CB0000F91FF90EF90DF90CF90BF90AF909F90EB
:101CC0008F907F906F905F904F903F900994DF913D
:101CD000CF911F910F91FF90EF90DF90CF90BF9029
:101CE000AF909F908F907F906F905F904F903F90BC
:101CF0000895DF92EF92FF920F931F93CF93DF939C
:101D0000FC01E058FF4FD080DD2009F45DC0EC01FC
:101D1000C05CDF4FA881B981109709F455C0FC0160
:101D2000EF57FF4F00811181F801F180E080ED91C4
:101D3000FC9111970190F081E02D60EFCD010995A4
:101D400088819981DC01ED91FC910190F081E02D79
:101D500069E7099588819981DC01ED91FC910190F9
:101D6000F081E02D6E2D099588819981DC01ED913E
:101D7000FC910190F081E02D6F2D09957801B2E082
:101D8000EB0EF11C0D0D111DE016F10661F020E0C7
:101D900030E0A70161E070E0CE010E94D30DEFEFCB
:101DA000EE1AFE0AF1CF88819981DC01ED91FC9158
:101DB0000190F081E02D67EFDF91CF911F910F919E
:101DC000FF90EF90DF900994DF91CF911F910F91D9
:101DD000FF90EF90DF900895009711F00C94790E2A
:101DE00008951F920F920FB60F9211242F933F93D5
:101DF0004F935F936F937F938F939F93AF93BF9313
:101E0000EF93FF938091B900887F803609F49CC0DE
:101E100068F5883209F45BC090F4803109F454C04D
:101E200038F4882309F4F6C0883009F44DC0F6C0B0
:101E3000883109F44CC0803209F45DC0EFC08034B1
:101E400009F468C048F4803309F455C0883309F0B8
:101E5000E5C08093C502D8C0803509F44FC08835ED
:101E600009F45DC0883409F0D9C0D6C0883909F4B6
:101E7000C7C0A8F4883709F467C038F4883609F475
:101E800063C0803709F460C0C9C0883809F4B8C09D
:101E9000803909F45FC0803809F0C0C05BC0803B66
:101EA00009F486C038F4803A09F466C0883A09F427
:101EB0007FC0B4C0803C09F4A7C0883C09F4A4C02A
:101EC000883B09F48AC0AAC08091A20210C09091F8
:101ED000C4028091C302981770F5E091C40281E0BA
:101EE0008E0F8093C402F0E0ED55FD4F808180930A
:101EF000BB0085EC86C08093C5028EC0E091C40211
:101F000081E08E0F8093C4028091BB00F0E0ED551C
:101F1000FD4F80839091C4028091C3026EC0E09116
:101F2000C40281E08E0F8093C4028091BB00F0E078
:101F3000ED55FD4F80838091C60281116DC081E017
:101F40008093A10284EA61C083E08093C70210926B
:101F50002205CFCF80912205803208F051C0E09158
:101F6000220581E08E0F809322058091BB00F0E076
:101F7000EE5FFA4F8083BDCF85EC8093BC0010925A
:101F8000C70280912205803230F4E0912205F0E012
:101F9000EE5FFA4F10826091220570E0E091DD045F
:101FA000F091DE0482E095E009951092220536C09A
:101FB00084E08093C7021092010510920005E09121
:101FC000DB04F091DC04099580910005811105C0C6
:101FD00081E0809300051092E004E091010581E02A
:101FE0008E0F80930105F0E0E052FB4F80818093DB
:101FF000BB009091010580910005981708F479CFF6
:1020000085E88093BC000AC085EC8093BC001092E8
:10201000C70204C01092C5020E94950CFF91EF9177
:10202000BF91AF919F918F917F916F915F914F91F0
:102030003F912F910F900FBE0F901F901895DF9238
:10204000EF92FF920F931F93CF93DF93EC01D62E65
:102050007A01890188818C3008F068C061E08D2D9B
:102060000E94A20B8881E82FF0E09F01220F331F0E
:10207000E20FF31FEB5AFB4F9D2D9F732081207CB5
:10208000D22ED92AD08220E232E02E193F0937FF22
:1020900002C02D5F3F4F35952795359527952983AC
:1020A00020E639E0201B310B37FF02C02D5F3F4F88
:1020B00035952795359527952A836CE00E948D16D6
:1020C0009CE0899FB001112440E050E09B01240F67
:1020D000351FF901EE0FFF1F2E0F3F1FF901EB5ABD
:1020E000FB4F908196FD16C04F5F5F4F4C305105FE
:1020F00069F781110FC01092800082E08093810007
:102100001092850010928400B19A80916F008260D5
:1021100080936F00E881F0E0CF01880F991FE80FEE
:10212000F91FEB5AFB4F8081806480838881DF91A7
:10213000CF911F910F91FF90EF90DF9008951F9224
:102140000F920FB60F9211242F933F934F935F93EB
:102150006F937F938F939F93AF93BF93EF93FF936F
:102160008091DF0487FF05C01092850010928400E3
:102170001BC02091DF04022E000C330B80917904E8
:1021800090E02817390784F48091DF04082E000CB2
:10219000990BFC01EE0FFF1F8E0F9F1FFC01EB5AE6
:1021A000FB4F808186FD15C08091DF048F5F809397
:1021B000DF042091DF04022E000C330B80917904A0
:1021C00090E028173907C4F48091DF048C3064F163
:1021D00013C08091DF04082E000C990BFC01EE0F58
:1021E000FF1F8E0F9F1FFC01EB5AFB4F808160E0A9
:1021F0008F730E94550BD8CF8091840090918500F9
:10220000049680349C4918F480E49CE905C08091D0
:1022100084009091850004969093890080938800B3
:102220008FEF8093DF043BC02091840030918500C4
:102230008091DF04082E000C990BFC01EE0FFF1FAC
:102240008E0F9F1FFC01EB5AFB4F81819281820F01
:10225000931F90938900809388008091DF04082E5B
:10226000000C990BFC01EE0FFF1F8E0F9F1FFC014E
:10227000EB5AFB4F808186FF12C08091DF04082E4D
:10228000000C990BFC01EE0FFF1F8E0F9F1FFC012E
:10229000EB5AFB4F808161E08F730E94550BFF91D9
:1022A000EF91BF91AF919F918F917F916F915F91CE
:1022B0004F913F912F910F900FBE0F901F90189547
:1022C000789484B5826084BD84B5816084BD85B511
:1022D000826085BD85B5816085BD80916E0081601D
:1022E00080936E00109281008091810082608093C3
:1022F00081008091810081608093810080918000C5
:102300008160809380008091B10084608093B100EF
:102310008091B00081608093B00080917A008460E9
:1023200080937A0080917A00826080937A00809115
:102330007A00816080937A0080917A00806880932F
:102340007A001092C10085E18093090480910A040B
:1023500090910B040E943717C0910904D0E0CE0180
:1023600001960E949F1690930B0480930A04FC012F
:10237000EC0FFD1F108212E0DC011C9325E011968A
:102380002C93AE014250510962EF71E002960E9417
:10239000C51782EC91E090935F0280935E0282E227
:1023A00091E090935D0280935C028DEE90E09093BB
:1023B0005B0280935A028FEC94E0909359028093D1
:1023C000580287E293E0909357028093560288ED7B
:1023D00090E0909355028093540288EA95E09093A0
:1023E0006102809360028CE59DE09093630280938C
:1023F0006202E091FC02F091FD021083E091FC0288
:10240000F091FD021082E091F802F091F902108241
:10241000E091FA02F091FB0280E1808310920403C4
:10242000E0910003F091010386E08083E091FE02D9
:10243000F091FF02808180618083E091FE02F09143
:10244000FF02808188608083E091FE02F091FF02AC
:10245000808180688083E091FE02F091FF0280819C
:102460008F7D808380914804811140C061E08DE0C0
:102470000E94A20BC0E062ED70E080E090E00E945C
:10248000F50B61E08DE00E94550B68E270E080E0A2
:1024900090E00E94F50B60E08DE00E94550BCF5F4D
:1024A000C23049F76AEF70E080E090E00E94F50BDF
:1024B000C0E062ED70E080E090E00E94F50B61E02A
:1024C0008DE00E94550B68E270E080E090E00E9491
:1024D000F50B60E08DE00E94550BCF5FC53049F7EA
:1024E0006DE770E080E090E00E94F50B8CEE92E0EA
:1024F00090930804809307049093CA038093C903C0
:1025000089EC93E00E947A0A89E893E00E94790EB0
:102510000E945C0DEE24E394C2E0D0E001E010E004
:1025200025E0D22E80916702882349F069B180911D
:10253000640268236C7F40E080E00E948D048091FB
:102540006802882381F083B196B1682F6F73B0E47D
:102550009B9FC0011124862B60916502682340E097
:1025600081E00E948D0480916902882359F066B150
:102570006C736695669580916602682340E082E000
:102580000E948D048091070490910804DC01ED9174
:10259000FC910084F185E02D0995892B09F4CEC1C9
:1025A0008091070490910804DC01ED91FC91028474
:1025B000F385E02D09959C018F3FBFEF9B0711F339
:1025C000982F8091D403882309F492C0973F09F093
:1025D0007EC01092D403A091CC03B091CD036C9136
:1025E0006137C1F1693709F05CC0E0910104F091F5
:1025F0000204309739F28091D5039091D60383304D
:10260000910538F420E030E040E050E060E070E018
:102610001BC0BD016D5F7F4F03970E943C0BBC0147
:102620006D5F7F4F80E00E940D0BE091CC03F09135
:10263000CD039F012D5F3F4F428150E0618170E0EB
:10264000E0910104F09102048091E3039091E4038E
:10265000099598CF8091FD039091FE03892B09F491
:1026600091CFBD016F5F7F4F8091D5039091D603CD
:1026700001970E943C0BBC016F5F7F4F80E00E947E
:102680000D0B6091CC037091CD036F5F7F4FE09194
:10269000FD03F091FE038091E9039091EA0309950F
:1026A00071CFE091FF03F0910004309709F46ACFF5
:1026B0009D012F5F3F4F4091D5035091D60341506C
:1026C00051098091EB039091EC0309955BCF6091E8
:1026D000D5037091D603822F0E940D0B8091D503F4
:1026E0009091D60301969093D6038093D5034ACF59
:1026F0006091D2037091D3036115710509F4AFC0E5
:1027000027FDADC0615071097093D3036093D2036C
:10271000822F0E940D0B8091D2039091D303892BBD
:1027200009F030CF8091D003882309F42BCF803D6E
:1027300009F47FC030F4803939F1803C09F466C077
:102740008BC0843FE1F1853F09F44DC0803E09F024
:1027500083C0E091EF03F091F003309709F47CC05F
:10276000A091CC03B091CD038C9111964C9150E087
:1027700020E8829F400D511D11246091D10380916A
:10278000D7039091D80367C0E091F103F091F20371
:10279000309709F461C0A091CC03B091CD038C9126
:1027A00011964C9150E090E8899F400D511D1124E5
:1027B0006091D1038091D9039091DA034CC0E091EC
:1027C000F703F091F803309709F446C0A091CC03C9
:1027D000B091CD034C9150E011966C918091DF0344
:1027E0009091E00338C0E091F903F091FA0330973B
:1027F00099F1A091CC03B091CD034C9150E011968A
:102800006C918091E1039091E20325C0E091F30384
:10281000F091F403309701F1A091CC03B091CD0376
:102820004C9150E06091D1038091DB039091DC03E7
:1028300012C0E091F503F091F603309769F0A09192
:10284000CC03B091CD034C9150E06091D1038091C5
:10285000DD039091DE0309951092D00393CE903F53
:1028600030F4822F8F708093D103922F907F903F0E
:1028700079F158F4903C29F118F49039E9F082CEBE
:10288000903DF9F0903EC1F07DCE993F09F449C0EA
:1028900028F48CE0890F823078F074CE9F3F09F0E5
:1028A00071CE1092D3031092D2031092D0031092E3
:1028B000D10380E090E013C0D093D303C093D20340
:1028C00004C01093D3030093D2039093D0035ACE45
:1028D000E092D4031092D6031092D50353CE2091E8
:1028E000CE033091CF038217930748F4E091CC03D5
:1028F000F091CD03E80FF91F10820196F0CF1092EE
:10290000D4031092D6031092D503E0910504F09100
:102910000604309709F436CE8091ED039091EE03D2
:102920000BC0E0910304F0910404309709F42ACE1F
:102930008091E5039091E603099524CE8FB7F89432
:102940004091990250919A0260919B0270919C0271
:102950008FBF8090940290909502A0909602B090C4
:1029600097022091010130910201C901A0E0B0E07D
:10297000481959096A097B0984179507A607B707FB
:1029800008F052C0880D991DAA1DBB1D80939402AA
:1029900090939502A0939602B09397028CE0A82E94
:1029A00084E0B82E92EFF92EA5E0AF15B8F0F5014E
:1029B0008081823099F480919202909193020F2C41
:1029C00002C0959587950A94E2F780FF07C08F2D86
:1029D0000E94DE0BBC018F2D0E94BD09F394FFEF16
:1029E000AF1ABF0A26E0F212DFCF8091000187FD07
:1029F0001BC0F12C2F2D30E080910001082E000C1F
:102A0000990B8217930784F0D29EF001D39EF00DAC
:102A10001124E659FD4F61817281248143818081B7
:102A20000E94F604F394E6CF0E943B0C7BCD1092FB
:102A3000EF021092EE0248EE53E060E070E0409347
:102A4000F0025093F1026093F2027093F3028DE072
:102A500091E09093ED028093EC0285EC90E09093EE
:102A6000F9028093F80284EC90E09093FB0280934B
:102A7000FA0280EC90E09093FD028093FC0281ECDE
:102A800090E09093FF028093FE0282EC90E090939E
:102A900001038093000386EC90E0909303038093FE
:102AA000020310920503109206031092070310927E
:102AB000080389E893E01092CA031092C903909327
:102AC000CD038093CC0320E430E03093CF032093F8
:102AD000CE031092D0031092D1031092D303109220
:102AE000D2031092D4031092D6031092D503109201
:102AF000D8031092D7031092DA031092D9031092E0
:102B0000DC031092DB031092DE031092DD031092BF
:102B1000E0031092DF031092E2031092E10310929F
:102B2000E8031092E7031092EA031092E90310926F
:102B3000EC031092EB031092EE031092ED0310924F
:102B4000FC031092FB031092CB0310920904109225
:102B50000B0410920A04109248042BE83CE03093D6
:102B6000F0032093EF0321E83CE03093F20320933D
:102B7000F10323E63CE03093F4032093F30329E5CB
:102B80003CE03093F6032093F50327E73CE03093D5
:102B9000F8032093F7032DE63CE03093FA032093EB
:102BA000F90328E53CE03093FE032093FD032DE478
:102BB0003CE0309300042093FF032CEE3EE0309382
:102BC0000204209301049093E4038093E30325E53A
:102BD0003DE030930404209303049093E603809334
:102BE000E50385E49CE0909306048093050410922D
:102BF0004C0410924B0440934D0450934E04609348
:102C00004F04709350048FE191E090934A048093B5
:102C1000490480917904AAE7B4E09FEF48EB5BE0B8
:102C20008C3078F48C93282F30E0F901EE0FFF1FE1
:102C30002E0F3F1FF901EB5AFB4F528341838F5FE9
:102C400001C09C93139624E0AE39B20749F78093F4
:102C500079040895052E97FB1EF400940E944116F6
:102C600057FD07D00E945C1607FC03D04EF40C946D
:102C7000411650954095309521953F4F4F4F5F4FEE
:102C8000089590958095709561957F4F8F4F9F4FD8
:102C900008950E947E16A59F900DB49F900DA49F4D
:102CA000800D911D11240895B7FF0C9449160E94C0
:102CB0004916821B930B0895A1E21A2EAA1BBB1B77
:102CC000FD010DC0AA1FBB1FEE1FFF1FA217B307F8
:102CD000E407F50720F0A21BB30BE40BF50B661F0E
:102CE000771F881F991F1A9469F7609570958095D2
:102CF00090959B01AC01BD01CF010895A29FB00149
:102D0000B39FC001A39F700D811D1124911DB29F1F
:102D1000700D811D1124911D0895991B79E004C047
:102D2000991F961708F0961B881F7A95C9F780950A
:102D30000895EE0FFF1F0590F491E02D09940F9375
:102D40001F93CF93DF938230910510F482E090E0DF
:102D5000E0912705F091280520E030E0A0E0B0E008
:102D6000309719F140815181028113814817590729
:102D7000C8F08417950769F4109731F012960C93F8
:102D8000129713961C9327C00093270510932805CC
:102D900022C02115310519F04217530718F49A0182
:102DA000BD01EF01DF01F801DBCF21153105F9F09D
:102DB000281B390B2430310580F48A819B816115F1
:102DC000710521F0FB019383828304C09093280551
:102DD00080932705FE01329644C0FE01E20FF31FE7
:102DE0008193919322503109398328833AC02091ED
:102DF000250530912605232B41F4209105013091C2
:102E0000060130932605209325052091030130917A
:102E100004012115310541F42DB73EB7409107015A
:102E200050910801241B350BE0912505F0912605F2
:102E3000E217F307A0F42E1B3F0B2817390778F091
:102E4000AC014E5F5F4F2417350748F04E0F5F1FF0
:102E500050932605409325058193919302C0E0E0AD
:102E6000F0E0CF01DF91CF911F910F910895CF93A3
:102E7000DF93009709F481C0FC013297138212821C
:102E8000A0912705B0912805109781F42081318108
:102E9000820F931F209125053091260528173907A9
:102EA00051F5F0932605E093250567C0ED0120E07C
:102EB00030E0CE17DF0740F44A815B819E01411567
:102EC0005105F1F0EA01F5CFD383C28340815181EE
:102ED000840F951FC817D90759F488819981840FE9
:102EE000951F0296918380838A819B81938382833D
:102EF0002115310529F4F0932805E09327053DC0FD
:102F0000E901FB83EA8349915991C40FD51FEC175E
:102F1000FD0761F480819181840F951F0296E9017C
:102F200099838883828193819B838A83E0E0F0E0A8
:102F300012968D919C911397009719F0FD01DC0179
:102F4000F7CF8D919C9111979D012E5F3F4F820F7E
:102F5000931F20912505309126052817390769F41C
:102F6000309729F4109228051092270502C0138289
:102F70001282B0932605A0932505DF91CF91089585
:102F800081E090E0F8940C94D417FB01DC014150EF
:102F9000504048F001900D920020C9F701C01D92E9
:0C2FA00041505040E0F70895F894FFCF36
:102FAC00FF130000002905800000000000870820A6
:102FBC00084A08D4082F0C59086D0800000000229C
:102FCC000DF50C520DC90CED0CD90CCA0C4D6178D9
:102FDC0020736572766F73206174746163686564C5
:102FEC0000556E6B6E6F776E2070696E206D6F641E
:102FFC0065004932433A20546F6F206D616E792021
:10300C0062797465732072656365697665640049DD
:10301C0032433A20546F6F2066657720627974656D
:10302C00732072656365697665640031302D626961
:10303C00742061646472657373696E67206E6F745B
:10304C0020737570706F7274656400746F6F206D8F
:10305C00616E79207175657269657300453A5C41E2
:10306C00726475696E6F5C6C6962726172696573AA
:10307C005C4669726D6174615C6578616D706C65DC
:10308C00735C5374616E646172644669726D6174D1
:10309C00615C5374616E646172644669726D6174D3
:0630AC00612E696E6F0049
:00000001FF
