:100000000C9417030C943F030C943F030C943F0390
:100010000C943F030C943F030C943F030C943F0358
:100020000C943F030C946F0A0C943F030C94070943
:100030000C943F030C943F030C943F030C943F0338
:100040000C941D200C943F030C940F120C94E91196
:100050000C943F030C943F030C943F030C943F0318
:100060000C94E10A0C943F03570E5D0E630E690E6B
:100070006F0E750E7B0E740F7B0F820F890F900F22
:10008000A70F970FA70F9E0F4E414E494E49545947
:10009000494E46CDCCCC3D0AD7233C17B7D1387753
:1000A000CC2B329595E6241FB14F0A000020410069
:1000B00000C84200401C4620BCBE4CCA1B0E5AAEB3
:1000C000C59D746364696E6F70737578585B0000CA
:1000D000000000230026002900010204081020402F
:1000E0008001020408102001020408102000000012
:1000F00000250028002B0004040404040404040266
:1001000002020202020303030303030000000024AF
:100110000027002A0000000008000201000003047C
:1001200007000000000000000000000000003E5B2F
:100130004F5B3E3E6B4F6B3E1C3E7C3E1C183C7E34
:100140003C181C577D571C1C5E7F5E1C00183C1819
:1001500000FFE7C3E7FF0018241800FFE7DBE7FF15
:1001600030483A060E2629792926407F05050740A2
:100170007F05253F5A3CE73C5A7F3E1C1C08081C63
:100180001C3E7F14227F22145F5F005F5F06097FA1
:10019000017F006689956A606060606094A2FFA23A
:1001A0009408047E040810207E201008082A1C08E9
:1001B000081C2A08081E101010100C1E0C1E0C30F3
:1001C000383E3830060E3E0E0600000000000000EB
:1001D0005F00000007000700147F147F14242A7FAB
:1001E0002A12231308646236495620500008070378
:1001F00000001C2241000041221C002A1C7F1C2AF6
:1002000008083E0808008070300008080808080048
:100210000060600020100804023E5149453E004243
:100220007F400072494949462141494D3318141213
:100230007F1027454545393C4A494931412111093B
:10024000073649494936464949291E00001400002D
:100250000040340000000814224114141414140047
:100260004122140802015909063E415D594E7C1293
:1002700011127C7F494949363E414141227F41412B
:10028000413E7F494949417F090909013E414151A8
:10029000737F0808087F00417F41002040413F01F3
:1002A0007F081422417F404040407F021C027F7F34
:1002B0000408107F3E4141413E7F090909063E4145
:1002C00051215E7F09192946264949493203017F98
:1002D00001033F4040403F1F2040201F3F40384027
:1002E0003F631408146303047804036159494D43C0
:1002F000007F4141410204081020004141417F0438
:10030000020102044040404040000307080020541E
:100310005478407F2844443838444444283844447E
:10032000287F385454541800087E090218A4A49C4D
:10033000787F0804047800447D40002040403D0060
:100340007F1028440000417F40007C047804787CC2
:10035000080404783844444438FC18242418182429
:100360002418FC7C08040408485454542404043F12
:1003700044243C4040207C1C2040201C3C40304019
:100380003C44281028444C9090907C4464544C4445
:1003900000083641000000770000004136080002E6
:1003A000010204023C2623263C1EA1A161123A4010
:1003B00040207A3854545559215555794122545486
:1003C0007842215554784020545579400C1E527281
:1003D000123955555559395454545939555454585E
:1003E0000000457C410002457D420001457C407D86
:1003F0001211127DF0282528F07C54554500205418
:10040000547C547C0A097F4932494949323A444470
:10041000443A324A4848303A4141217A3A424020EF
:1004200078009DA0A07D3D4242423D3D4040403D80
:100430003C24FF2424487E4943662B2FFC2F2BFFAE
:100440000929F620C0887E09032054547941000010
:10045000447D413048484A32384040227A007A0A86
:100460000A727D0D19317D2629292F28262929294F
:100470002630484D40203808080808080808083881
:100480002F10C8ACBA2F102834FA00007B000008E7
:10049000142A142222142A14085500550055AA556E
:1004A000AA55AAFF55FF55FF000000FF00101010CD
:1004B000FF00141414FF001010FF00FF1010F010C4
:1004C000F0141414FC001414F700FF0000FF00FFE8
:1004D0001414F404FC141417101F10101F101F1410
:1004E00014141F00101010F0000000001F10101056
:1004F000101F10101010F010000000FF101010104E
:100500001010101010FF10000000FF140000FF007A
:10051000FF00001F10170000FC04F414141710173C
:100520001414F404F40000FF00F714141414141449
:1005300014F700F7141414171410101F101F1414BC
:1005400014F4141010F010F000001F101F00000031
:100550001F14000000FC140000F010F01010FF1039
:10056000FF141414FF141010101F00000000F010EE
:10057000FFFFFFFFFFF0F0F0F0F0FFFFFF000000D3
:100580000000FFFF0F0F0F0F0F3844443844FC4AA0
:100590004A4A347E02020606027E027E0263554902
:1005A00041633844443C04407E201E2006027E0203
:1005B0000299A5E7A5991C2A492A1C4C7201724C84
:1005C000304A4D4D303048784830BC625A463D3E46
:1005D000494949007E0101017E2A2A2A2A2A4444E7
:1005E0005F444440514A444040444A51400000FF67
:1005F0000103E080FF000008086B6B083612362408
:1006000036060F090F060000181800000010100031
:100610003040FF0101001F01011E00191D171200CB
:100620003C3C3C3C000000000000682E582E112489
:100630001FBECFEFD8E0DEBFCDBF12E0A0E0B1E03B
:10064000EEE9F8E702C005900D92A035B107D9F7A1
:1006500025E0A0E5B2E001C01D92A53FB207E1F799
:1006600013E0C6E1D3E004C02197FE010E941837D1
:10067000C531D107C9F70E94AC200C94423C0C94C0
:1006800000006F927F928F929F92AF92BF92CF9213
:10069000DF92EF92FF920F931F93CF93DF93EC01C2
:1006A0004B015A0169013801E881F9810284F3851F
:1006B000E02D0995E881F9810288F389E02D870111
:1006C0009601A501B401CE010995A501460D571D5E
:1006D00041505109E881F9810288F389E02D9601A2
:1006E000B401CE010995E881F9810088F189E02DF6
:1006F0009301A501B401CE010995C80CD91CB6011E
:1007000061507109E881F9810088F189E02D930138
:10071000A501CE010995E881F9810688F789E02DC8
:10072000CE01DF91CF911F910F91FF90EF90DF905D
:10073000CF90BF90AF909F908F907F906F900994D3
:100740008F929F92AF92BF92CF92DF92EF92FF92E1
:100750000F931F93CF93DF934C016B015A01E90173
:10076000DC01ED91FC916217730781F40417150702
:1007700024F48B2D5801042F182F0A191B099801F6
:100780002F5F3F4F048CF58DE02D12C040175107AD
:1007900009F52617370724F48D2D6901C62FD82FA8
:1007A0009E012C193D092F5F3F4F068CF78DE02DE0
:1007B0008701A501B601C4010995DF91CF911F9171
:1007C0000F91FF90EF90DF90CF90BF90AF909F90F0
:1007D0008F9008950284F385E02D0995D401ED9161
:1007E000FC910488F589E02D9E01A501B601C401A4
:1007F0000995D401ED91FC910688F789E02DC4019B
:10080000DF91CF911F910F91FF90EF90DF90CF90EC
:10081000BF90AF909F908F900994EF92FF920F93AB
:100820001F93DC011A960D911C911B9718962D9120
:100830003C911997ED91FC9100A0F1A1E02D7B0175
:1008400040E050E060E070E009951F910F91FF904B
:10085000EF9008954F925F926F927F928F929F9246
:10086000AF92BF92CF92DF92EF92FF920F931F93BE
:10087000CF93DF936C012B015A0139014801DC0150
:10088000ED91FC910284F385E02D0995E201640C61
:10089000751CD601ED91FC91C615D7055CF4008856
:1008A000F189E02D87019401A501BE01C6010995DA
:1008B0002196EFCF0688F789E02DC601DF91CF9111
:1008C0001F910F91FF90EF90DF90CF90BF90AF906E
:1008D0009F908F907F906F905F904F9009948F9230
:1008E0009F92AF92BF92CF92DF92EF92FF920F93BF
:1008F0001F93CF93DF93EC015B014A016901E8810B
:10090000F9810284F385E02D099595012C0D3D1D9B
:1009100021503109E881F9810488F589E02D7801B9
:100920008401A401B501CE010995E881F981068809
:10093000F789E02DCE01DF91CF911F910F91FF90AC
:10094000EF90DF90CF90BF90AF909F908F900994E1
:100950008F929F92AF92BF92CF92DF92EF92FF92CF
:100960000F931F93CF93DF93EC015B014A01690161
:100970007801E881F9810284F385E02D0995C80C9E
:10098000D91C860101501109E881F9810488F58993
:10099000E02D9501A401B501CE010995E881F98109
:1009A0000688F789E02DCE01DF91CF911F910F913D
:1009B000FF90EF90DF90CF90BF90AF909F908F907F
:1009C00009940895EF92FF920F931F93DC01ED912C
:1009D000FC9100A0F1A1E02D09951F910F91FF90CE
:1009E000EF9008950F931F93DC01ED91FC91068C1D
:1009F000F78DE02D09951F910F9108950F931F9387
:100A0000DC01ED91FC91048CF58DE02D09951F9191
:100A10000F910895DC01ED91FC910084F185E02DAA
:100A200009942F923F924F925F926F927F928F9292
:100A30009F92AF92BF92CF92DF92EF92FF920F936D
:100A40001F93CF93DF9300D000D000D0CDB7DEB797
:100A50002C017E836D836A015901C801FC82EB82FF
:100A60004801841A950A97FE03C0919481949108D5
:100A700035012D813E81621A730A77FE03C071949D
:100A800061947108681479045CF43A2D2B2D5C0193
:100A9000832F922F3D812E81DE82CD82C32ED22ED6
:100AA000AD81BE81AA16BB065CF43C2D2D2D6C01D8
:100AB000832F922F3D812E81BE82AD82A32EB22E36
:100AC00085012D813E81021B130B1C012C183D0852
:100AD00037FE03C0319421943108780117FF03C019
:100AE0003FEFE31AF30AF594E794C816D9062CF001
:100AF0008FEF9FEF9A83898304C0A1E0B0E0BA83AF
:100B0000A9832D813E81A216B30624F1D201ED9175
:100B1000FC910484F585E02D2B813C8168147904D7
:100B200024F44D815E81B60103C0A6016D817E81F2
:100B3000C2010995E218F308F7FE06C029813A813F
:100B4000C20ED31EE00EF11E8D819E8101969E8302
:100B50008D83D7CF26960FB6F894DEBF0FBECDBFDC
:100B6000DF91CF911F910F91FF90EF90DF90CF9089
:100B7000BF90AF909F908F907F906F905F904F90BD
:100B80003F902F90089548305105F0F46031710581
:100B9000D8F4440F551FFC01E40FF51F81E090E0ED
:100BA00002C0880F991F6A95E2F7232B29F0238D45
:100BB000348D822B932B06C080959095238D348D98
:100BC00082239323948F838F089585ED8093BC00B7
:100BD0008091BC0084FDFCCF1092C0050895409127
:100BE000FB02262F30E0240F311D21323105DCF4C9
:100BF0002091C0052430C9F4FC0180E090E0861704
:100C000058F43091FB022191DC01A552BD4FA30F96
:100C1000B11D2C930196F3CF8091FB02680F609376
:100C2000FB0280E0089581E0089582E00895089530
:100C30000895E091990580919805E81730F4F0E067
:100C4000E554FD4F808190E008958FEF9FEF089568
:100C50009091990580919805981750F4E92FF0E04C
:100C6000E554FD4F208130E09F5F9093990502C0CD
:100C70002FEF3FEFC90108958091980590E02091F2
:100C80009905821B91090895CF92DF92EF92FF920E
:100C90000F931F93CF93DF937C01CB018A012091A7
:100CA000C105222389F0EB016B01C40ED51ECC15C2
:100CB000DD0569F06991D701ED91FC910190F0811A
:100CC000E02DC7010995F3CF642F0E94EF05C801FD
:100CD000DF91CF911F910F91FF90EF90DF90CF9018
:100CE0000895CF93DF931F92CDB7DEB7698320912C
:100CF000C1052223D1F02091E305203240F021E00C
:100D000030E0FC013383228380E090E015C08091C5
:100D1000C205E82FF0E0ED53FA4F998190838F5F81
:100D20008093C2058093E30505C061E0CE01019682
:100D30000E94EF0581E090E00F90DF91CF91089540
:100D4000089580E090E0089580914F038823C1F0DA
:100D500080915D0290915E0297FF03C0919581950D
:100D6000910920911E0330911F038217930741F4CC
:100D700060E085E00E946C1D60E086E00E946C1DD2
:100D8000809150038823C1F080915F0290916002AE
:100D900097FF03C091958195910920911E03309191
:100DA0001F038217930741F460E089E00E946C1DE5
:100DB00060E08AE00E946C1D809151038823C1F09D
:100DC000809161029091620297FF03C09195819595
:100DD000910920911E0330911F038217930741F45C
:100DE00060E087E00E946C1D60E088E00E946C1D5E
:100DF000809152038823C1F0809163029091640234
:100E000097FF03C091958195910920911E03309120
:100E10001F038217930741F460E08CE00E946C1D71
:100E200060E08DE00E946C1D80911E0390911F0375
:100E3000019690931F0380931E038F3F91050CF43E
:100E400084C080914F03882341F060E085E00E94D8
:100E50006C1D60E086E00E946C1D80915003882329
:100E600041F060E089E00E946C1D60E08AE00E9431
:100E70006C1D80915103882341F060E087E00E945F
:100E80006C1D60E088E00E946C1D809152038823F5
:100E900041F060E08CE00E946C1D60E08DE00E94FB
:100EA0006C1D10921F0310921E0380914F03882324
:100EB00081F080915D0290915E02181619061CF473
:100EC00061E085E004C0892B21F061E086E00E94AA
:100ED0006C1D80915003882381F080915F02909176
:100EE0006002181619061CF461E08AE004C0892B20
:100EF00021F061E089E00E946C1D809151038823FC
:100F000081F08091610290916202181619061CF41A
:100F100061E087E004C0892B21F061E088E00E9455
:100F20006C1D80915203882381F08091630290911F
:100F30006402181619061CF461E08DE004C0892BC8
:100F400021F061E08CE00C946C1D08958F929F92CB
:100F5000AF92BF92EF92FF920F931F93CF93DF93C5
:100F60007C01142FFC010081F8E00F9FE0011124A7
:100F7000FE01E051FC4F74836383442309F471C084
:100F8000603282E078070CF03FC0CB01653B710511
:100F900014F084EB90E0F7012181A8E8B0E04D0166
:100FA000821A910827FD9394D401AA0FBB1FAA0FA0
:100FB000BB1F4D01BB0FAA08BB08428128E532E0E8
:100FC000241B310947FD3395220F331F220F331F96
:100FD000A901330F660B770B9A01AB012819390968
:100FE0004A095B09DC0197FF02C0A0E0B0E00E9463
:100FF0001C3524EB30E040E050E00E94F234820ED9
:10100000931EA41EB51EB4010C3008F09FC0F7015A
:10101000218188E890E0821B910927FD9395880F34
:10102000991F880F991F681779077CF0228188E53E
:1010300092E0821B910927FD9395880F991F880FD5
:10104000991F681779070CF4CB012FB7F894C0519A
:10105000DC4F0297880F991F9E838D831F832FBFBC
:1010600075C06032F2E07F070CF03FC0CB01653BFA
:10107000710514F084EB90E0F7012181A8E8B0E05D
:101080004D01821A910827FD9394D401AA0FBB1F2A
:10109000AA0FBB1F4D01BB0FAA08BB08428128E560
:1010A00032E0241B310947FD3395220F331F220FF5
:1010B000331FA901330F660B770B9A01AB01281977
:1010C00039094A095B09DC0197FF02C0A0E0B0E0E2
:1010D0000E941C3524EB30E040E050E00E94F234E6
:1010E000820E931EA41EB51EB401FE01E051FC4FFA
:1010F000748363830C3050F5F701218188E890E018
:10110000821B910927FD9395880F991F880F991FBE
:101110006817790784F0828128E532E0281B3109BD
:1011200087FD3395220F331F220F331FCB01261764
:1011300037070CF4C9012FB7F894C051DC4F029760
:10114000880F991F9A8389832FBF1F82DF91CF91C8
:101150001F910F91FF90EF90BF90AF909F908F9055
:1011600008951F93CF93DF93EC01162F88818C3065
:1011700008F048C061E0812F0E940A1E888198E033
:10118000899FF0011124E051FC4F1F739081907CE6
:10119000192B108319821A826CE00E94E4369CE0BD
:1011A000899FA001112420E030E0FA01E20FF31F33
:1011B00093E0EE0FFF1F9A95E1F7E051FC4F90810D
:1011C00096FD16C02F5F3F4F2C30310571F781110E
:1011D0000FC01092800082E0809381001092850001
:1011E00010928400B19A80916F00826080936F00AA
:1011F000E88188E0E89FF0011124E051FC4F8081F4
:10120000806480838881DF91CF911F9108951F9220
:101210000F920FB60F9211242F933F934F935F932A
:101220006F937F938F939F93AF93BF93EF93FF93AE
:101230008091200387FF05C01092850010928400E2
:1012400016C020912003022E000C330B8091500415
:1012500090E0281739075CF4E091200328E0E202CF
:10126000F0011124E051FC4F808186FD15C0809172
:1012700020038F5F8093200320912003022E000C17
:10128000330B8091500490E0281739079CF480912B
:1012900020038C3034F10EC0E091200328E0E202FC
:1012A000F0011124E051FC4F808160E08F730E94B7
:1012B0006C1DDDCF809184009091850084349C4921
:1012C00018F480E49CE905C0809184009091850029
:1012D000049690938900809388008FEF8093200379
:1012E000EDC0E091200388E0E802F0011124E05114
:1012F000FC4F8781882309F4B5C0A0912003E091B9
:10130000200388E0A802D0011124A051BC4F28E09E
:10131000E202F0011124E051FC4F15962D913C9111
:10132000169781819281A0912003E091200382177A
:10133000930708F04BC088E0E802F0011124E05167
:10134000FC4F28E0A202D0011124A051BC4F1796F7
:101350002C9181819281820F911D92838183A09132
:101360002003E091200388E0A802D0011124A051BD
:10137000BC4F28E0E202F0011124E051FC4F159629
:101380002D913C911697818192818217930708F4E1
:1013900069C0E0912003A091200388E0E802F001F9
:1013A0001124E051FC4F28E0A202D0011124A051E9
:1013B000BC4F15968D919C91169792838183E091F5
:1013C000200388E0E802F001112449C028E0E2028D
:1013D000F0011124E051FC4F88E0A802D001112453
:1013E000A051BC4F17962C9181819281821B91094B
:1013F00092838183A0912003E091200328E0A20240
:10140000D0011124A051BC4F88E0E802F001112462
:10141000E051FC4F15962D913C9116978181928158
:1014200028173907F8F0E0912003A091200328E065
:10143000E202F0011124E051FC4F88E0A802D00143
:101440001124A051BC4F15968D919C9116979283B3
:101450008183E091200328E0E202F0011124E051B1
:10146000FC4F17822091840030918500E091200389
:1014700088E0E802F0011124E051FC4F8181928163
:10148000820F931F9093890080938800E09120033E
:1014900028E0E202F0011124E051FC4F808186FF38
:1014A0000DC0E091200388E0E802F0011124E05132
:1014B000FC4F808161E08F730E946C1DFF91EF9162
:1014C000BF91AF919F918F917F916F915F914F915C
:1014D0003F912F910F900FBE0F901F9018951F9264
:1014E0000F920FB60F9211242F933F934F935F9358
:1014F0006F937F938F939F93AF93BF93EF93FF93DC
:1015000080915502909156028093B20080915102D1
:1015100090915202A0915302B09154020196A11DE4
:10152000B11D8093510290935202A0935302B09345
:1015300054028091510290915202A0915302B091B5
:1015400054024091590250915A0260915B0270918D
:101550005C0284179507A607B70710F18091500227
:1015600081111EC081E080935002809151029091C0
:101570005202A0915302B0915402841B950BA60B0A
:10158000B70B8093510290935202A0935302B093F1
:101590005402E0915702F0915802099510925002BE
:1015A000FF91EF91BF91AF919F918F917F916F913B
:1015B0005F914F913F912F910F900FBE0F901F9011
:1015C00018951F920F920FB60F9211242F933F93ED
:1015D0004F935F936F937F938F939F93AF93BF933B
:1015E000EF93FF938091B900887F803609F49CC007
:1015F00068F5883209F45BC090F4803109F454C076
:1016000038F4882309F4F6C0883009F44DC0F6C0D8
:10161000883109F44CC0803209F45DC0EFC08034D9
:1016200009F468C048F4803309F455C0883309F0E0
:10163000E5C08093BE05D8C0803509F44FC0883519
:1016400009F45DC0883409F0D9C0D6C0883909F4DE
:10165000C7C0A8F4883709F467C038F4883609F49D
:1016600063C0803709F460C0C9C0883809F4B8C0C5
:10167000803909F45FC0803809F0C0C05BC0803B8E
:1016800009F486C038F4803A09F466C0883A09F44F
:101690007FC0B4C0803C09F4A7C0883C09F4A4C052
:1016A000883B09F48AC0AAC080919B0510C0909124
:1016B000BD058091BC05981770F5E091BD0581E0EE
:1016C0008E0F8093BD05F0E0E456FA4F8081809341
:1016D000BB0085EC86C08093BE058EC0E091BD0541
:1016E00081E08E0F8093BD058091BB00F0E0E45651
:1016F000FA4F80839091BD058091BC056EC0E0914A
:10170000BD0581E08E0F8093BD058091BB00F0E0A8
:10171000E456FA4F80838091BF0581116DC081E04E
:1017200080939A0584EA61C083E08093C00510929B
:101730001D03CFCF80911D03803208F051C0E0918E
:101740001D0381E08E0F80931D038091BB00F0E0AC
:10175000E350FD4F8083BDCF85EC8093BC00109299
:10176000C00580911D03803230F4E0911D03F0E04C
:10177000E350FD4F108260911D0370E0E0919405ED
:10178000F09195058DEF92E0099510921D0336C0FA
:1017900084E08093C0051092FC021092FB02E0915D
:1017A0009605F091970509958091FB02811105C07E
:1017B00081E08093FB021092DB02E091FC0281E069
:1017C0008E0F8093FC02F0E0E552FD4F8081809304
:1017D000BB009091FC028091FB02981708F479CF2E
:1017E00085E88093BC000AC085EC8093BC00109211
:1017F000C00504C01092BE050E94E505FF91EF915F
:10180000BF91AF919F918F917F916F915F914F9118
:101810003F912F910F900FBE0F901F90189565E18B
:1018200072E083E593E00E94E71169E172E083E5ED
:1018300093E00C94E711CF92DF92EF92FF92CF9357
:10184000DF93CDB7DEB72C970FB6F894DEBF0FBE8F
:10185000CDBF7B016A01BC0183E593E00E94E711E3
:1018600062E072E083E593E00E94E711B7018EE049
:10187000E816F104E4F06E507109CE0107960E945B
:10188000C8146AE272E0CE0101960E949711BE016F
:10189000695F7F4FCE0101960E9412150E94451587
:1018A000CE0101960E944E15CE0107960AC0CE01C8
:1018B00001960E94C814CE0101960E944515CE01E2
:1018C00001960E944E1562E072E083E593E00E946B
:1018D000E7110D2C000CEE08FF08F7FE0EC06DE2BC
:1018E00083E593E00E94C60D66277727CB016C192C
:1018F0007D098E099F094AE003C04AE0C701B6018D
:101900000E94531567E272E083E593E00E94D211D2
:101910002C960FB6F894DEBF0FBECDBFDF91CF91EE
:10192000FF90EF90DF90CF900895CF93DF93EB017E
:10193000FC0160816134E1F43F932F935F934F93F7
:10194000DF93CF932CE232E03F932F939F938F93BB
:101950000E941A39888199810E96998388838DB760
:101960009EB70A960FB6F8949EBF0FBE8DBF16C0E5
:101970003F932F935F934F93DF93CF9329EC31E005
:101980003F932F939F938F930E941A398DB79EB7E1
:101990000A960FB6F8949EBF0FBE8DBFDF91CF9110
:1019A0000895CF93DF93EB01FC0120812134D1F422
:1019B0005F934F93DF936F9327E332E03F932F932F
:1019C0009F938F930E941A39888199810E969983EB
:1019D00088838DB79EB708960FB6F8949EBF0FBE4A
:1019E0008DBF14C05F934F93DF936F932CEC31E066
:1019F0003F932F939F938F930E941A398DB79EB771
:101A000008960FB6F8949EBF0FBE8DBFDF91CF91A1
:101A10000895CF93DF93EB01FC012081213481F401
:101A2000DF936F932FE332E03F932F939F938F9336
:101A30000E941A39888199810E96998388830AC0F9
:101A4000DF936F932FEC31E03F932F939F938F930E
:101A50000E941A390F900F900F900F900F900F90D7
:101A6000DF91CF910895CF92DF92EF92FF920F9383
:101A70001F93CF93DF936C017A018B01C0E0D0E01C
:101A8000CE15DF0581F0D8016D918D01D601ED9164
:101A9000FC910190F081E02DC6010995892B11F090
:101AA0002196EECF7E01C701DF91CF911F910F915B
:101AB000FF90EF90DF90CF900895FC01538D448DFF
:101AC000252F30E0842F90E0821B930B541710F0E9
:101AD000CF96089501970895FC01918D828D9817F6
:101AE00061F0828DDF01A80FB11D5D968C91928D02
:101AF0009F5F9F73928F90E008958FEF9FEF0895FF
:101B0000FC01918D828D981731F0828DE80FF11DC7
:101B1000858D90E008958FEF9FEF0895FC01918DE2
:101B2000228D892F90E0805C9F4F821B91098F73DB
:101B30009927089583E593E00E948E0D21E0892B7B
:101B400009F420E0822F0895FC01848DDF01A80FA5
:101B5000B11DA35ABF4F2C91848D90E001968F73D5
:101B60009927848FA689B7892C93A089B1898C91F4
:101B7000837080648C93938D848D981306C0028843
:101B8000F389E02D80818F7D80830895EF92FF920D
:101B90000F931F93CF93DF93EC0181E0888F9B8D90
:101BA0008C8D981305C0E889F989808185FD26C050
:101BB000F62E0B8D10E00F5F1F4F0F731127E02ED5
:101BC0008C8DE8120CC00FB607FCFACFE889F989B2
:101BD000808185FFF5CFCE010E94A40DF1CF8B8DC2
:101BE000FE01E80FF11DE35AFF4FF0829FB7F89412
:101BF0000B8FEA89FB89808180620AC09FB7F894C5
:101C0000EE89FF896083E889F98980818370806427
:101C100080839FBF81E090E0DF91CF911F910F9172
:101C2000FF90EF900895CF93DF93EC01888D882388
:101C3000C9F0EA89FB89808185FD05C0A889B98939
:101C40008C9186FD0FC00FB607FCF5CF808185FF14
:101C5000F2CFA889B9898C9185FFEDCFCE010E9482
:101C6000A40DE7CFDF91CF91089580E090E0892B1C
:101C700029F00E949A0D81110C9400000895CF93D1
:101C8000DF934770552766277727FA013197EC01D4
:101C9000A881B981E730F10520F4EC5CFF4F0C948A
:101CA00018371496ED91FC91159761E029C01496B0
:101CB000ED91FC91159765E023C01496ED91FC9190
:101CC000159764E01DC01496ED91FC91159766E0A0
:101CD00017C01496ED91FC91159762E011C014960F
:101CE000ED91FC9115976AE00BC01496ED91FC9173
:101CF000159768E005C01496ED91FC91159769E081
:101D0000DF91CF910994CF93DF93EC01CB01BA011E
:101D100026E030E040E050E00E94F234623071058D
:101D20008105910559F18CF46115710581059105C5
:101D3000F1F06130710581059105C1F5E881F98106
:101D40000480F581E02D65E02DC0643071058105CA
:101D5000910511F1D4F0653071058105910531F5DA
:101D6000E881F9810480F581E02D66E01BC0E881FF
:101D7000F9810480F581E02D64E014C0E881F981E7
:101D80000480F581E02D61E00DC0E881F9810480D7
:101D9000F581E02D63E006C0E881F9810480F581DA
:101DA000E02D62E0CE01DF91CF910994DF91CF91D8
:101DB00008954370552766277727DC01ED91FC9144
:101DC0000480F581E02D423051056105710571F007
:101DD000433051056105710559F0413051056105E8
:101DE000710511F065E005C066E003C06AE001C05E
:101DF00069E00994CF93DF93EC01CB01BA0123E0B2
:101E000030E040E050E00E94F2346130710581051D
:101E1000910581F0623071058105910591F0672B84
:101E2000682B692BC1F4E881F9810480F581E02DEC
:101E300064E00DC0E881F9810480F581E02D61E066
:101E400006C0E881F9810480F581E02D62E0CE01D1
:101E5000DF91CF910994DF91CF9108954370552779
:101E600066277727DC01ED91FC910480F581E02D58
:101E7000423051056105710571F04330510561052E
:101E8000710559F0413051056105710511F062E0AD
:101E900005C063E003C061E001C060E00994CF9336
:101EA000DF93EC0120E030E0A9016B897C898D890A
:101EB0009E890E947F3618161CF4EFA5F8A902C06F
:101EC000E9A9FAA9DF91CF9109940F931F93DC013F
:101ED0001296EC910E2F10E009301105C0F5F801B3
:101EE000E55CFF4F0C941837DC01ED91FC91008408
:101EF000F185E02D29C0DC01ED91FC910284F38590
:101F0000E02D22C0DC01ED91FC910484F585E02DEB
:101F10001BC0DC01ED91FC910684F785E02D14C017
:101F2000DC01ED91FC910088F189E02D0DC0DC0110
:101F3000ED91FC910288F389E02D06C0DC01ED9162
:101F4000FC910488F589E02D1F910F9109941F9150
:101F50000F9108950895FC016370668B84819581CB
:101F600026813781613039F0633029F0918780878D
:101F70003387228708953187208793878287089542
:101F80000E940539CF92DF92EF92FF920F931F9339
:101F9000CF93DF93EC019A81943041F0983031F087
:101FA000933031F0963021F012E003C014E001C00C
:101FB00013E02396E12CF12CC62ED12C01E0C601B2
:101FC0000E2C02C0959587950A94E2F76C8180FDEE
:101FD000602789910E946C1D8FEFE81AF80AE116BC
:101FE00070F3DF91CF911F910F91FF90EF90DF90F1
:101FF000CF900895CF93DF93FC012281222359F1E2
:10200000EC0161E083810E940A1E61E08C810E94E4
:102010000A1E8A81843011F0883039F461E08D81A4
:102020000E940A1E61E08E8106C0833011F0863066
:1020300021F461E08D810E940A1E8EA58F3F59F028
:1020400061E00E940A1E6DA581E068278EA5DF91E0
:10205000CF910C946C1DDF91CF910895CF93DF93B6
:10206000FC0122812223A9F0EC010190F081E02DF6
:102070000480F581E02D60E009958EA58F3F49F041
:1020800061E00E940A1E6DA58EA5DF91CF910C9490
:102090006C1DDF91CF9108950F931F93CF93DF9322
:1020A000EC01E881F9810480F581E02D8C010D5B64
:1020B0001F4FD8018C91811102C060E001C062E025
:1020C000CE010995E881F9810480F581E02DD801E0
:1020D0008C91811102C061E001C063E0CE010995DD
:1020E0008BA59CA50E94C71AE881F9810480F5811F
:1020F000E02DD8018C91811102C060E001C062E046
:10210000CE01DF91CF911F910F9109948F929F92F1
:10211000AF92CF92EF92FF920F931F93CF93DF93E3
:10212000EC01262F898D9A8D009709F042C06A3004
:1021300059F41D861C862D898E859F8538E0239F46
:10214000800D911D112443C06D3009F4AAC08F8900
:102150008823C9F03C898C859D8546E0349F800D9D
:10216000911D1124488559854817590764F41D8627
:102170001C863D898E859F8548E0349F800D911D8A
:1021800011249F878E87EA88FB88088919894E85E4
:102190005F856C857D85AD88CC88CE010E940F1B44
:1021A0002C898C859D8536E0239F800D911D1124FF
:1021B0003EC06A3079F41D861C862D89FC01369656
:1021C000E4918E859F852E9F800D911D11249F8700
:1021D0008E8767C06D3009F464C0FC013496349179
:1021E000631708F45EC03196E491E61708F459C00D
:1021F000462F431B342FFC0132968590949047E084
:10220000349F800C911C1124F40132963491319644
:10221000E491332311F0E1110DC0F4013496E491FF
:102220002C898C859D85E29F800D911D11249D87B1
:102230008C8737C0F401359644915F89552319F195
:102240005C89E32FF0E0E40FF11D47FDFA955E9FF6
:10225000B0015F9F700D11244C855D85460F571F9F
:10226000688579856417750774F41D861C863D8919
:10227000FC013696E4918E859F853E9F800D911DD1
:1022800011249F878E87EA88FB88088919894E85E3
:102290005F856C857D85AD88CC88CE010E940F1B43
:1022A000BCCF81E090E0DF91CF911F910F91FF9023
:1022B000EF90CF90AF909F908F9008950F931F93C2
:1022C000CF93DF93EC0188819981009729F02A81CF
:1022D0003B812617370788F48B016F5F7F4F0E9481
:1022E0003F38009761F0998388831B830A832C8190
:1022F0003D81232B11F4FC01108281E001C080E0BC
:10230000DF91CF911F910F910895CF93DF93EC014F
:1023100088819981009711F00E94B637198218823E
:102320001D821C821B821A82DF91CF910895EF9249
:10233000FF920F931F93CF93DF93EC0119821882C2
:102340001B821A821D821C826115710521F18B018D
:10235000FB0101900020E9F731977F01E61AF70AA7
:10236000B7010E945E11811109C0CE01DF91CF91AA
:102370001F910F91FF90EF900C948511FD82EC82DC
:10238000B80188819981DF91CF911F910F91FF90C2
:10239000EF900C941339DF91CF911F910F91FF9023
:1023A000EF9008956115710579F0FB01019000200F
:1023B000E9F73197AF01461B570BDC01ED91FC911A
:1023C0000280F381E02D099480E090E008950C9460
:1023D000D2111F920F920FB60F9211242F933F9399
:1023E0004F935F936F937F938F939F93AF93BF931D
:1023F000EF93FF9383E593E00E94A40DFF91EF918B
:10240000BF91AF919F918F917F916F915F914F910C
:102410003F912F910F900FBE0F901F9018951F9214
:102420000F920FB60F9211242F938F939F93EF93D8
:10243000FF93E0916303F09164038081E09169036D
:10244000F0916A0382FD12C0908180916C038F5FCE
:102450008F7320916D03821751F0E0916C03F0E0CF
:10246000ED5AFC4F958F80936C0301C08081FF91E2
:10247000EF919F918F912F910F900FBE0F901F9012
:1024800018954F925F926F927F92AF92BF92CF92C8
:10249000DF92EF92FF920F931F93CF93DF93EC01A4
:1024A0005A018B01CF88D88CE98CFA8C2601370130
:1024B00077FA709477F870949A01AB01C301B20176
:1024C0000E947F3618165CF09501A801C701B6017D
:1024D0000E949C3387FD05C06501780102C073012D
:1024E000620120E030E0A901C701B6010E949C33DF
:1024F000811105C01BA21CA21DA21EA220C0A70103
:10250000960160E074E284E799E40E94D7359F77F2
:102510000E9450366BA37CA38DA39EA35E0183E42F
:10252000A80EB11C11E020E030E0A901C701B601FE
:102530000E947F3618160CF010E0F5011083CB8A4C
:10254000DC8AED8AFE8ADF91CF911F910F91FF9077
:10255000EF90DF90CF90BF90AF907F906F905F90A3
:102560004F900895CF92DF92EF92FF92CF93DF9337
:10257000EC010E94EC1F6B017C018FA198A5A9A51D
:10258000BAA5B701A601481B590B6A0B7B0B8BA19F
:102590009CA1ADA1BEA1481759076A077B0730F17E
:1025A000FE01ED5BFF4F20818B859C85AD85BE854F
:1025B000222321F00196A11DB11D03C00197A1099D
:1025C000B1098B879C87AD87BE874B855C856D8500
:1025D0007E85E881F9810680F781E02DCE0109959D
:1025E000CFA2D8A6E9A6FAA681E001C080E0DF91DB
:1025F000CF91FF90EF90DF90CF9008954F925F9230
:102600006F927F928F929F92AF92BF92CF92DF9202
:10261000EF92FF920F931F93CF93DF93EC018F8480
:102620009888A988BA888B859C85AD85BE85881ACF
:10263000990AAA0ABB0A6B897C898D899E899B01AC
:10264000AC010E9402346B017C016B8D7C8D8D8D01
:102650009E8D9B01AC010E946B359B01AC01C701B3
:10266000B6010E94D7350E94493681149104A10415
:10267000B10499F462307105810591050CF079C0BF
:102680001BA21CA21DA21EA21B8A1C8A1D8A1E8AB6
:102690001BAA1CAA1DAA1EAAF4C00BA91CA92DA91D
:1026A0003EA9FE01ED5BFF4F181419041A041B0428
:1026B000FCF410161106120613064CF46815790581
:1026C0008A059B054CF52081211153C025C00115B9
:1026D00011052105310509F44CC0681579058A05F5
:1026E0009B050CF046C08081882309F442C036C0A7
:1026F0001016110612061306ECF400271127980194
:10270000081919092A093B096017710782079307FD
:102710001CF42081222369F19B01AC0188279927B1
:10272000DC01821B930BA40BB50B8BAB9CABADAB4D
:10273000BEAB1FC00115110521053105D1F0CC2418
:10274000DD247601C818D908EA08FB086C157D0558
:102750008E059F0574F4808181110BC03095209502
:10276000109501951F4F2F4F3F4F0BAB1CAB2DAB5F
:102770003EABCBA8DCA8EDA8FEA88E010D5B1F4FD9
:10278000C114D104E104F10491F48FA998ADA9AD6D
:10279000BAAD8BAF9CAFADAFBEAF81E018141904DA
:1027A0001A041B040CF080E0F80180833EC08BAC5F
:1027B0009CACADACBEACA5019401C501B4010E94B6
:1027C0006B352B013C01C701B6010E94A33320E009
:1027D00030E040E850E40E94023420E030E040E87D
:1027E0005FE30E946B359B01AC01C301B2010E9403
:1027F000D7359B01AC01C501B4010E946A352B019C
:102800003C01FE01FF9680809180A280B3809401FC
:10281000A5010E947F36181614F442015301C40129
:10282000D5018BAF9CAFADAFBEAFFFEFCF1ADF0AC4
:10283000EF0AFF0ACBAADCAAEDAAFEAACBACDCAC5D
:10284000EDACFEACC701B6010E9450366BA37CA371
:102850008DA39EA3A701960160E074E284E799E44A
:102860000E94D7356B8B7C8B8D8B9E8BF8012081E2
:10287000211107C0DC01CB01B0588B8B9C8BAD8B39
:10288000BE8BDF91CF911F910F91FF90EF90DF9062
:10289000CF90BF90AF909F908F907F906F905F9000
:1028A0004F9008954F925F926F927F928F929F9276
:1028B000AF92BF92CF92DF92EF92FF92CF93DF93CE
:1028C000EC016A017B018B8C9C8CAD8CBE8C9A01D7
:1028D000AB01C501B4010E949C33882309F449C0AF
:1028E0006BA97CA98DA99EA90E94A3332B013C0151
:1028F000A7019601C501B4010E94D7359B01AC0127
:10290000C301B2010E9402340E9449366BAB7CAB1A
:102910008DAB9EABA701960160E070E080E090E493
:102920000E94D7350E948A3626E53EE04DE25FE3FD
:102930000E94023420E034E244E759E40E94023469
:102940006FAB78AF89AF9AAFCB8EDC8EED8EFE8EFB
:10295000CE01DF91CF91FF90EF90DF90CF90BF90AD
:10296000AF909F908F907F906F905F904F900C945E
:10297000FE12DF91CF91FF90EF90DF90CF90BF904C
:10298000AF909F908F907F906F905F904F90089541
:10299000CF92DF92EF92FF920F931F93CF93DF932B
:1029A000CDB7DEB762970FB6F894DEBF0FBECDBFCE
:1029B0008C01CB01F80111821082138212821582E0
:1029C00014824AE09E012F5F3F4F6901B9010E94C6
:1029D000F631F60101900020E9F731977F01EC18FC
:1029E000FD08B701C8010E945E11811104C0C80131
:1029F0000E94851108C0F801F582E482B601808149
:102A000091810E94133962960FB6F894DEBF0FBE13
:102A1000CDBFDF91CF911F910F91FF90EF90DF908D
:102A2000CF900895EF92FF920F931F93CF93DF9370
:102A3000EC01FB0104811581E080F180E114F104D7
:102A4000C9F001151105C9F08C819D81080F191F6E
:102A5000B801CE010E945E11882361F0288139817E
:102A60008C819D81B701820F931F0E9413391D83B2
:102A70000C8303C0CE010E948511CE01DF91CF915E
:102A80001F910F91FF90EF900895FC0144815581B3
:102A90006081718183E593E00C94330DFC018081AA
:102AA00091810C94B6378F929F92AF92BF920F9301
:102AB0001F93CF93DF93CDB7DEB7A1970FB6F894EE
:102AC000DEBF0FBECDBF19A2423008F44AE08E012E
:102AD0000F5D1F4F842E912CA12CB12CA5019401C8
:102AE0000E94D034E62FB901CA0101501109EA3021
:102AF00014F4E05D01C0E95CD801EC93232B242B96
:102B0000252B61F7B80183E593E00E94D211A196CD
:102B10000FB6F894DEBF0FBECDBFDF91CF911F91EE
:102B20000F91BF90AF909F908F9008958F929F923A
:102B3000AF92BF92CF92DF92EF92FF920F931F93CB
:102B4000CF93DF936B017C01142F9B01AC010E949A
:102B5000CA36882319F064E472E027C046015701A1
:102B6000E894B7F82FEF3FEF4FE75FE7C501B401F7
:102B70000E94CA3681110DC02FEF3FEF4FE75FE78C
:102B8000C501B4010E949C3318161CF468E472E07D
:102B90000CC02FEF3FEF4FE75FE4C701B6010E9483
:102BA0007F36181694F46CE472E083E593E0DF91CD
:102BB000CF911F910F91FF90EF90DF90CF90BF903A
:102BC000AF909F908F900C94D2112FEF3FEF4FE773
:102BD0005FECC701B6010E949C3387FDE4CF20E083
:102BE00030E0A901C701B6010E949C3387FF0BC0EA
:102BF0006DE283E593E00E94C60DEC01F7FAF094D4
:102C0000F7F8F09402C0C0E0D0E000E060E070E0CF
:102C100080E09FE3101741F020E030E040E251E413
:102C20000E94D7350F5FF6CFA70196010E946B3542
:102C30006B017C010E9450364B015C014AE00E940E
:102C40005315C80FD91F1123B9F1C501B4010E9452
:102C5000A1339B01AC01C701B6010E946A356B012B
:102C60007C016EE283E593E00E94C60DC80FD91F78
:102C700020E030E040E251E4C701B6010E94023496
:102C80004B015C010E9450366B01E12CF12C4AE0B3
:102C9000C701B6010E945315C80FD91FC701B6015D
:102CA0000E94A1339B01AC01C501B4010E946A35A9
:102CB0006B017C011150E1F6CE01DF91CF911F91A4
:102CC0000F91FF90EF90DF90CF90BF90AF909F90CB
:102CD0008F900895DC0190918404992361F0699F9D
:102CE000B0011124672F949FA0011124452F929FBA
:102CF00090011124232F30918A0480918704E09160
:102D00008504F0918604381308C0CD01880F991FFF
:102D10008A0F9B1F8E0F9F1F0BC0CD01880F991F1D
:102D2000880F991F8E0F9F1FFC01E30FF11D10826A
:102D300030918704FC01E30FF11D6083309188041A
:102D4000FC01E30FF11D408330918904FC01E30F86
:102D5000F11D20830895CF93C82F80917E0488238E
:102D600039F08091830487FD03C060E00E940A1E51
:102D7000C093830480917E04882341F061E08C2F0E
:102D80000E940A1E60E08C2F0E946C1D8C2F90E028
:102D9000FC01E950FF4FE491F0E0EE0FFF1FE3511B
:102DA000FF4F259134913093900420938F04FC01C0
:102DB000E752FF4FE491E0939104CF9108951F9360
:102DC000CF93DF9311E0180F209184041217A1F123
:102DD000C0918504D09186042150B9F08F3F59F4F9
:102DE00030E040E050E06FEF7FEF80E090E00E9445
:102DF000F234B9010CC0812F90E0982F88270197F9
:102E0000622F70E00E94F03602C060E070E0FE01C8
:102E10004091810450918204CF018C1B9D0B84173B
:102E2000950740F44081469FC001479F900D1124B3
:102E30009193EECF10938404DF91CF911F91089569
:102E4000CF93DF93BC0183E593E00E94D211EC01A4
:102E500067E272E083E593E00E94D2118C0F9D1F20
:102E6000DF91CF910895CF92DF92EF92FF920F936F
:102E70001F93CF93DF93F82EEB0161E00E940A1EAF
:102E800060E08F2D0E946C1D83E090E00197F1F7C8
:102E900061E08F2D0E946C1D83E290E00197F1F7B5
:102EA00060E08F2D0E946C1D60E08C2F0E940A1E36
:102EB000DD27FE01E752FF4F6491FE01E950FF4F0D
:102EC000E491F0E0EE0FFF1FE153FF4F85919491E5
:102ED00000EE13E924E030E0462F0E9467206115E0
:102EE00071058105910539F0DC01CB010196A11D29
:102EF000B11DBF7003C080E090E0DC01BC0180E048
:102F000090E00E94A1332DEC3CEC48E652E40E9494
:102F1000D7356B017C0120E030E040EC50E40E94AA
:102F20007F36181654F42AE037ED43EA5FE3C70111
:102F3000B6010E9402346B017C0120E030E0A9015F
:102F4000C701B6010E949C33811107C0C12C80ECDF
:102F5000D82E89E7E82E84E4F82EC701B6010E9436
:102F60004936CB01DF91CF911F910F91FF90EF90E8
:102F7000DF90CF900895CF92DF92EF92FF920F9360
:102F80001F93CF93DF93EC016A017B019A01AB01A0
:102F90006F89788D898D9A8D0E949C33882309F4DE
:102FA00046C0CF8AD88EE98EFA8E8E01015C1F4F03
:102FB000A701960160E074E284E799E40E94D735A6
:102FC000F80160837183828393838BA99CA9ADA947
:102FD000BEA9181619061A061B064CF56B897C89C2
:102FE0008D899E899B01AC010E9402346B017C019A
:102FF0006B8D7C8D8D8D9E8D9B01AC010E946B3500
:103000009B01AC01C701B6010E94D7350E94493629
:103010006BAB7CAB8DAB9EABCE01DF91CF911F91A3
:103020000F91FF90EF90DF90CF900C94FE12DF9104
:10303000CF911F910F91FF90EF90DF90CF90089567
:103040003F924F925F926F927F928F929F92AF9238
:10305000BF92CF92DF92EF92FF920F931F93CF9385
:10306000DF9310924F03109250031092510310926D
:10307000520380907C0590907D05A0907E05B090D5
:103080007F05DC01CB01880D991DAA1DBB1D809316
:103090007C0590937D05A0937E05B0937F0580917C
:1030A000800590918105A0918205B0918305080F5C
:1030B000191F2A1F3B1F0093800510938105209341
:1030C000820530938305BA01550F880B990B0E9436
:1030D000A333AB01BC018BEE94E00E94BB17B70198
:1030E000FF0C880B990B0E94A333AB01BC0187EA4C
:1030F00094E00E94BB178090A6044CE7C42E45E0E4
:10310000D42EC2E9D4E0912C10E000E0F12CE12CA7
:103110008914A9F1F60181919191A191B1916F0169
:10312000A990B990F5014384548465847684BC01E8
:10313000CD01641975098609970997FF07C0909515
:103140008095709561957F4F8F4F9F4F0E94A3335D
:10315000F5012789308D418D528D0E94D7353B0175
:103160005C01212F302F4F2D5E2D0E947F361816C7
:1031700024F4162D072DFA2CEB2C9394C9CF20E0C4
:1031800030E0A901612F702F8F2D9E2D0E947F3678
:1031900018160CF058C0312C8091A604381608F08F
:1031A00052C0C32DD0E0FE01EE0FFF1FEE0FFF1F38
:1031B000E458FA4F80809180A280B380CC0FDD1F4D
:1031C000FE01EE56FB4FC080D180F60183859485C9
:1031D000A585B685A5019401281B390B4A0B5B0B0D
:1031E000CA01B9010E94A333212F302F4F2D5E2D2C
:1031F0000E94D7352B013C01F60187859089A18972
:10320000B28988169906AA06BB0639F08786908A85
:10321000A18AB28AC6010E94FE12CE56DB4F0990E7
:10322000D881C02D2B893C894D895E89C301B201AB
:103230000E949C33882329F0B301A201CE010E9491
:1032400041123394A9CF80E0C0E09091A604C91741
:1032500020F5EC2FF0E0EE0FFF1FEE56FB4F019034
:10326000F081E02D078510892189328943855485B5
:1032700065857685041715072607370761F083A152
:1032800094A1A5A1B6A1892B8A2B8B2B19F0CF0174
:103290000E94B21281E0CF5FD8CF8111D4CF8BEEE4
:1032A00094E00E942E1087EA94E0DF91CF911F9165
:1032B0000F91FF90EF90DF90CF90BF90AF909F90D5
:1032C0008F907F906F905F904F903F900C942E1056
:1032D0000F931F93FC01078510892189328943854B
:1032E0005485658576850417150726073707C1F0CD
:1032F000ED5BFF4F40175107620773071CF421E095
:10330000208301C01082FC0143A154A165A176A1D4
:10331000452B462B472B21F01F910F910C94B21295
:1033200080E01F910F910895CF93DF930E94451580
:10333000EC0167E272E083E593E00E94D2118C0F0A
:103340009D1FDF91CF9108959FB7F894A1E2B3E05C
:103350009196ED91FC919297208190968C91822B81
:1033600080839FBF08959FB7F894A1E2B3E05E9673
:10337000ED91FC915F9720815D968C91822B8083EB
:103380009FBF08959FB7F894A1E2B3E05B96ED91DB
:10339000FC915C9720815A968C91822B80839FBFF1
:1033A00008953091E305313208F04BC08091C0059B
:1033B0008111FCCF9091E50522E02093C00521E02A
:1033C0002093BF052FEF2093BE051092BD053093CB
:1033D000BC05E3ECF5E0ACE9B5E020E0321721F004
:1033E00041914D932F5FFACF10929B0520919B0541
:1033F000990F922B90939B0590919A05913061F4CF
:1034000010929A0590919B059093BB009091BC00FF
:1034100093FDF8CF95EC01C095EE9093BC00909190
:10342000C0059230E1F39091BE059F3F79F0809105
:10343000BE05803241F08091BE05803331F084E0DA
:1034400005C081E003C082E001C083E01092C205A4
:103450001092E3051092C1050895833081F028F49D
:10346000813099F08230A1F008958730A9F088303A
:10347000B9F08430D1F4809180008F7D03C08091B9
:1034800080008F7780938000089584B58F7702C085
:1034900084B58F7D84BD08958091B0008F7703C07F
:1034A0008091B0008F7D8093B00008958F929F929D
:1034B000AF92BF92CF92DF92EF92FF920F931F9342
:1034C000CF93DF93C0E0D0E010E0E82E880FFF0834
:1034D0008FE0C82ED12C812C912C540183940C2F79
:1034E000C7010C2E02C0959587950A94E2F780FFDC
:1034F00003C00E94B3190DC02FB7F894E0913F03A9
:10350000F0914003908180913E03809589238083D0
:103510002FBF2FB7F894E0913C03F0913D039081C9
:1035200080913B038095892380832FBFC60101973B
:10353000F1F7E0914503F0914603908180914403B7
:10354000892351F0D501C40104C0880F991FAA1F17
:10355000BB1F0A95D2F7182B0E94C2192196C830BA
:10356000D10509F0BCCF0E94B31983E490E0019724
:10357000F1F7812FDF91CF911F910F91FF90EF9085
:10358000DF90CF90BF90AF909F908F900895823042
:10359000910538F0880F991F880F991F059701979B
:1035A000F1F708952FB7F894A1E2B3E09196ED9169
:1035B000FC919297908190968C918095892380833D
:1035C0002FBF08950F931F93CF93DF9380917C04B7
:1035D00091E09093C1058093E5051092C205109289
:1035E000E30560E08FE695E00E947106CCE6D4E04A
:1035F0008E0168818FE695E00E9471062296F8019F
:1036000061818FE695E00E947106F4E0CC37DF0718
:1036100079F7DF91CF911F910F910C94D1192F92CF
:103620003F924F925F926F927F928F929F92AF9252
:10363000BF92CF92DF92EF92FF920F931F93CF939F
:10364000DF93CDB7DEB76B970FB6F894DEBF0FBE32
:10365000CDBF9B8F8A8F1B014A01D22E1987088705
:103660003701A982DC0159962D913C915A97211579
:10367000310509F0FFC018968D919C911997681734
:1036800079070CF0E7C11A968D919C911B9748170A
:1036900059070CF0DFC1EC2DF0E0FB83EA839B01BE
:1036A00046E0C49E200D311D11243D872C87121643
:1036B00013060CF0CFC16A2D70E07B876A8783E028
:1036C000660F771F8A95E1F77F876E87CB01880D9C
:1036D000991D181619060CF0BDC158968C918111D0
:1036E00004C08FEA8D1508F4D394AA8DBB8DED919B
:1036F000FC9111970284F385E02DCD010995B5E089
:10370000DB9EC0011124EC2DF0E0F98BE88B9101D8
:103710002B5F3F4F3B8B2A8B3D822C822101AC01DA
:10372000421953095D8B4C8B7981672F70E07F8B39
:103730006E8BC4010896998F888FEC89FD89E40D02
:10374000F51DE75DFE4FD49054019F828E82D0FE1E
:1037500016C0AA8DBB8DED91FC91B1E0CB1209C0D2
:103760002981213031F40484F585E02D28853985BF
:1037700019C00684F785E02DE884F9841DC04885CA
:1037800059854615570519F1AA8DBB8DED91FC9110
:10379000B1E0CB120DC02981213051F40484F585AC
:1037A000E02D9301A501B2018A8D9B8D09950FC073
:1037B0000684F785E02D73010A851B852A813B81EC
:1037C0004E815F816C817D818A8D9B8D0995D69418
:1037D0003FEFA31AB30A4E815F816E897F89460F3E
:1037E000571F5F834E83888D998DA816B90609F0FF
:1037F000AECF9FEF491A590AAC81BD81E889F9899A
:10380000AE0FBF1FBD83AC832A893B894216530686
:1038100009F093CF488559854615570509F4F8C036
:10382000AA8DBB8DED91FC91B1E0CB1211C0298125
:10383000213071F4B1016B5F7F4F0088F189E02D79
:10384000830128E030E0A4018A8D9B8D0995E0C0BA
:103850006C857D854A815B81641B750B0684F785C9
:10386000E02D73010E851F859A01A4018A8D9B8D21
:103870000995CEC0F9013496E491DE1AF901329629
:1038800085919491B7E0DB9E800D911D1124F90183
:10389000259134913B8B2A8BFC0125913491590160
:1038A000FC0132965490319634913C873296749054
:1038B0003196149141E04C1518F05981523068F05E
:1038C000672D072C000C770B7D836C83812F012ED5
:1038D000000C990B9B838A8304C01B821A821D8271
:1038E0001C82AA8DBB8DED91FC9111970284F3850A
:1038F000E02DCD010995412CD12C612CF981EF2FC0
:10390000F0E0FF83EE832C2D30E03B872A87A40173
:10391000410F511D17FD5A955F8B4E8BB101670DFD
:10392000711D77FC7A95798F688F7C85671608F012
:103930006FC0262D30E04A815B81420F531FAE815C
:10394000BF81A49FC001A59F900DB49F900D11242D
:10395000F401E80FF91FF98BE88B842D712C4E8947
:103960005F89420F531F5D8B4C8B751408F04DC05F
:1039700051E0580F5E87877041F4C5010196EA89CE
:10398000FB89EA0DFB1DD4905C01D7FE3AC061E0D3
:10399000C61216C07981713099F4AA8DBB8DED9154
:1039A000FC9111970484F585E02D288539854C8993
:1039B0005D89688D798D670D711DCD01099521C0D7
:1039C0008C819D81870D911DEA85FB858E9FB001BD
:1039D0008F9F700D9E9F700D1124620D731DAA8D17
:1039E000BB8DED91FC9111970684F785E02DE8845D
:1039F000F9840E811F812A853B8548895989CD012B
:103A00000995DD0C73948E85B0CF450C63948DCFF2
:103A1000AA8DBB8DED91FC9111970688F789E02D59
:103A2000CD016B960FB6F894DEBF0FBECDBFDF9110
:103A3000CF911F910F91FF90EF90DF90CF90BF90AB
:103A4000AF909F908F907F906F905F904F903F903E
:103A50002F9009946B960FB6F894DEBF0FBECDBFC2
:103A6000DF91CF911F910F91FF90EF90DF90CF905A
:103A7000BF90AF909F908F907F906F905F904F908E
:103A80003F902F900895CF93DF93282F30E0F901D6
:103A9000EB5EFE4F8491F901E752FF4FD491F9019B
:103AA000E950FF4FC491CC2391F081110E942D1A4F
:103AB000EC2FF0E0EE0FFF1FE153FF4FA591B49103
:103AC000EC91ED2381E090E021F480E002C080E001
:103AD00090E0DF91CF9108951F93CF93DF93282F2C
:103AE00030E0F901EB5EFE4F8491F901E752FF4FA0
:103AF000D491F901E950FF4FC491CC23C1F0162FA6
:103B000081110E942D1AEC2FF0E0EE0FFF1FE35100
:103B1000FF4FA591B4919FB7F894111104C08C91F7
:103B2000D095D82302C0EC91DE2BDC939FBFDF91B0
:103B3000CF911F9108950F931F93CF9301E514E048
:103B400080E7F80183A710929905109298051092CA
:103B5000C2051092E3051092C005C1E0C093BF05F5
:103B600010929A0561E082E10E946C1D61E083E1A0
:103B70000E946C1DE9EBF0E080818E7F8083808164
:103B80008D7F808388E48093B80085E48093BC00B7
:103B900087E196E0909397058093960588E196E0FB
:103BA0009093950580939405F80183A5C093C10572
:103BB0008093E5051092C2051092E30561E28FE65D
:103BC00095E00E9471060E94D119F80183A5C09367
:103BD000C1058093E5051092C2051092E30561E8E6
:103BE0008FE695E00E9471060E94D119F80183A525
:103BF000C093C1058093E5051092C2051092E305BC
:103C00006FEE8FE695E00E947106CF911F910F91A4
:103C10000C94D119CF93DF9390E0FC01E752FF4F52
:103C20002491FC01E950FF4F8491882361F190E0D9
:103C3000880F991FFC01E55FFE4FC591D491FC01EF
:103C4000E351FF4FA591B491611109C09FB7F8945A
:103C50008881209582238883EC912E230BC06230CB
:103C600061F49FB7F8948881322F3095832388833D
:103C7000EC912E2B2C939FBF06C08FB7F894E88150
:103C80002E2B28838FBFDF91CF9108958E3008F0BF
:103C90008E508770806480937C0080917A0080646D
:103CA00080937A0080917A0086FDFCCF8091780025
:103CB0002091790090E0922B08958F929F92AF927D
:103CC000BF92CF92DF92EF92FF926B017C010E9434
:103CD000EC1F4B015C01C114D104E104F104F1F0CB
:103CE0000E94EC1FDC01CB0188199909AA09BB09C4
:103CF000883E9340A105B10570F321E0C21AD108B6
:103D0000E108F10888EE880E83E0981EA11CB11C22
:103D1000C114D104E104F10419F7DDCFFF90EF9055
:103D2000DF90CF90BF90AF909F908F900895EF92CB
:103D3000FF920F931F93CF93DF937C01062F0E9476
:103D4000D21A83E490E00197F1F7E70110E0CE0189
:103D50008E199F098017910724F489910E94561AA1
:103D6000F6CF0E94A41960914B0370E080E090E0D0
:103D7000DF91CF911F910F91FF90EF900C945D1EFA
:103D800065E089E291E00E94971E69E080E291E09F
:103D90000E94971E80914D03882329F065E08BE1F6
:103DA00091E00E94971E80914E03882329F069E0DC
:103DB00082E191E00E94971E69E089E091E00C9415
:103DC000971E6F927F928F929F92AF92BF92CF92E7
:103DD000DF92EF92FF921F93CF93DF93CDB7DEB7C1
:103DE00029970FB6F894DEBF0FBECDBF182F0E94E3
:103DF0001120C0904703D0904803E0904903F09011
:103E00004A036C197D098E099F090E94A1336B0139
:103E10007C0120E030E84BEB54E40E947F3618161A
:103E200014F40E94C01E60914B0370E080E090E0AB
:103E30000E94A3334B015C019B01AC01C701B60199
:103E40000E949C3387FF0AC0A7019601C501B401F7
:103E50000E946A350E9450360E945D1E112371F047
:103E6000212F30E0AFEBB0E00E945B352FEF30E068
:103E700040E050E00E94F23410E4120FCE010196AF
:103E80007C0189E0F70111928A95E9F781E0898345
:103E900082E48A831D8315E023E4C22ED12C5E01C7
:103EA000FAE0AF0EB11C0E94B3190E94C2190E9421
:103EB000D21AC6010197F1F7370191E2892E93E0FA
:103EC000992EF30181913F010E94561AF4018193CA
:103ED0004F016A147B04A9F780912203893741F0CE
:103EE0000E94A41980912203807F803789F41CC02E
:103EF0008AE2882E83E0982E80E00E94561AF40110
:103F000081934F01F6E38F16F3E09F06A9F7E8CF00
:103F10000E94C01E60914B0370E080E090E00E9420
:103F20005D1E115009F0BFCF80912203807F803742
:103F300039F080914B038A3018F48F5F80934B03E4
:103F40008091390390913A0390933803809337031B
:103F5000809124039091250390933A038093390331
:103F60000E94112060934703709348038093490394
:103F700090934A0390912203907F81E0903709F05B
:103F800080E029960FB6F894DEBF0FBECDBFDF915B
:103F9000CF911F91FF90EF90DF90CF90BF90AF90A7
:103FA0009F908F907F906F9008951F93CF93DF9392
:103FB000182FCAE0D0E0812F0E94E11E62E370E07A
:103FC00080E090E00E945D1E2197A9F71092E40521
:103FD000DF91CF911F9108953FB7F8948091EB0541
:103FE0009091EC05A091ED05B091EE0526B5A89B4A
:103FF00005C02F3F19F00196A11DB11D3FBFBA2F7B
:10400000A92F982F8827820F911DA11DB11DBC01DA
:10401000CD0142E0660F771F881F991F4A95D1F79F
:1040200008952FB7F8946091E7057091E8058091A5
:10403000E9059091EA052FBF08951F920F920FB6E0
:104040000F9211242F933F938F939F93AF93BF931E
:104050008091E7059091E805A091E905B091EA0506
:104060003091E60523E0230F2D3720F40196A11DA2
:10407000B11D05C026E8230F0296A11DB11D209396
:10408000E6058093E7059093E805A093E905B093D2
:10409000EA058091EB059091EC05A091ED05B091BA
:1040A000EE050196A11DB11D8093EB059093EC05E3
:1040B000A093ED05B093EE05BF91AF919F918F91C5
:1040C0003F912F910F900FBE0F901F901895CF9298
:1040D000DF92EF92FF920F931F93E82FF92F05C005
:1040E000015011092109310961F19081962394173A
:1040F000B9F305C0015011092109310911F190816D
:1041000096239413F7CFC12CD12CE12CF12C0AC0AB
:104110008FEFC81AD80AE80AF80A0C151D052E05F3
:104120003F0579F080818623841791F36C2D7D2DD6
:104130008E2D9F2D1F910F91FF90EF90DF90CF90CC
:10414000089560E070E080E090E01F910F91FF9093
:10415000EF90DF90CF900895CF93DF93CDB7DEB788
:10416000E0970FB6F894DEBF0FBECDBF789484B54C
:10417000826084BD84B5816084BD85B5826085BD63
:1041800085B5816085BD80916E00816080936E00F1
:1041900010928100809181008260809381008091E3
:1041A0008100816080938100809180008160809394
:1041B00080008091B10084608093B1008091B00054
:1041C00081608093B00080917A00846080937A004F
:1041D00080917A00826080937A0080917A00816079
:1041E00080937A0080917A00806880937A001092A0
:1041F000C100E0916303F091640382E08083E09169
:104200005F03F09160031082E0916103F09162031B
:1042100080E1808310926B03E0916703F091680363
:1042200086E08083E0916503F09166038081806180
:104230008083E0916503F0916603808188608083CC
:10424000E0916503F0916603808180688083E0914E
:104250006503F091660380818F7D80830E940F0C3F
:1042600040E050E066E174E48BEE94E00E94BB17FE
:1042700040E050E068E473E48BEE94E00E94521456
:1042800040E050E066E174E487EA94E00E94BB17E6
:1042900040E050E068E473E487EA94E00E9452143E
:1042A000E091A604EA3068F481E08E0F8093A604C2
:1042B000F0E0EE0FFF1FEE56FB4F8BEE94E0918384
:1042C0008083E091A604EA3068F481E08E0F809349
:1042D000A604F0E0EE0FFF1FEE56FB4F87EA94E0D6
:1042E000918380831092800510928105109282053F
:1042F0001092830510927C0510927D0510927E0528
:1043000010927F0581E08093500380934F031092B9
:1043100052031092510380E090EBACE5B6E4809339
:10432000840590938505A0938605B09387058CEF4F
:1043300099EAA1EFBDE38093880590938905A09346
:104340008A05B0938B050CE815E0A4E9EA2EA5E0F8
:10435000FA2E680161E0D8018D918D010E940A1E3C
:1043600060E0F60180810E946C1DE016F10689F77D
:1043700004E311E061E0D8018D918D010E940A1ED5
:10438000B1E00E331B07B1F781E090E0A0E0B0E0B0
:104390008093590290935A02A0935B02B0935C02FF
:1043A00084EA96E0909358028093570280917000BF
:1043B0008E7F809370008091B0008C7F8093B000DE
:1043C0008091B100877F8093B1008091B6008F7D8E
:1043D0008093B600809170008D7F809370008091F3
:1043E000B10084608093B1008091B1008C7F809394
:1043F000B10087EE90E090935602809355021092A0
:1044000051021092520210925302109254021092D2
:10441000500280915502909156028093B200809193
:1044200070008160809370008091830487FD08C0D4
:1044300061E00E940A1E60E0809183040E946C1D6E
:1044400081E080937E0484E60E94DF16F3E42F2E41
:10445000312C83E593E00E948E0D892B11F40C948E
:104460001D2E83E593E00E946C0DA091BA02E1E05D
:10447000EA0FE093BA020A2E000CBB0BA658BD4F00
:104480008C938A3011F00C94132E0E2E000CFF0B1F
:10449000E658FD4F108280917A028D3411F00C9411
:1044A0000A2E8BE792E00E94A8318C01AE01485E93
:1044B0005F4F62E072E08BE792E00E94CF310436FA
:1044C000110509F41EC50CF07FC00830110509F470
:1044D00085C2FCF40330110509F451C174F40130B4
:1044E000110509F42BC10CF039C1012B11F00C940A
:1044F0000A2E0E940F0C0C940A2E0530110509F4A7
:10450000CCC10CF450C10630110509F4E2C10C9481
:104510000A2E0431110509F4BEC3BCF40A3011059A
:1045200009F4A0C30CF483C20B30110511F00C94F4
:104530000A2EBE016F5F7F4F888D998D0E94090DF5
:1045400089810E94DF160C940A2E0631110509F4A8
:1045500076C40CF40BC40E31110509F4A0C40F315C
:10456000110511F00C940A2ECE0101969F938F93A2
:1045700009969F938F9306969F938F9389EC91E072
:104580009F938F93898D8F93888D8F930E941A3973
:1045900009811A81FA848B85E8889989E0927702EB
:1045A00090937802F09275028093760261E08E2DEE
:1045B0000E940A1E61E08F2D0E940A1E60E08E2D6F
:1045C0000E946C1D60E08BC40D3C110511F40C942D
:1045D0001D2B0CF078C00836110509F498C70CF0B3
:1045E00050C0CE010196398D288D0636110509F48B
:1045F000E2C40CF02FC59F938F938FEC91E09F93B3
:104600008F933F932F930E941A3969817A81072EE5
:10461000000C880B990B0E94A3336B017C018090E6
:10462000840590908505A0908605B0908705A5012A
:1046300094010E94023420E030E048EC52E40E94F1
:10464000D7350E9449362B013C01C701B60190586D
:10465000A50194010E94023420E030E048EC52E4CD
:104660000E94D7350E944936F4EFEF2EFF24F394D1
:104670009301820144EF51E00E94201880EE91E006
:10468000E0C4083C110509F44FC79CF40936110534
:1046900011F00C940A2E888D998D0E94A43160939C
:1046A00088057093890580938A0590938B050C94F7
:1046B0000A2E0B3C110509F457C70C3C110509F4EF
:1046C00065C70C940A2E0C3D110541F18CF4043D94
:1046D000110511F40C94042C053D110511F40C94F2
:1046E0002B2C013D110511F00C940A2E0C945D2B1E
:1046F0000E3D110511F40C94AC2D14F40C94972D6F
:104700000A3F110511F40C94D62D073E134011F009
:104710000C940A2E0C9400000C940A2E0BE010E06E
:1047200066E0462E61E0562E7AEE672E70E0772E18
:10473000E8E08E2EE1E09E2E0C94E52CAE014F5F5A
:104740005F4FBE01665F7F4F888D998D0E94D10CAF
:1047500069818A850E940A1E0C940A2EAE014F5F61
:104760005F4FBE01665F7F4F888D998D0E94D10C8F
:1047700061E08A850E940A1E69818A8538C0BE016F
:104780006F5F7F4F888D998D0E94090D60E0898150
:104790000E940A1E89810E94431D69817A81AC01B1
:1047A00089EB91E092C0AE014F5F5F4FBE01665F43
:1047B0007F4F888D998D0E94D10C0A851B8503300F
:1047C000110551F0C80105978230910528F0049732
:1047D000039710F00C940A2EE980FA8061E0802F94
:1047E0000E940A1EE114F10431F460E0802F0E945F
:1047F0006C1D0C940A2EFFEFEF16F10409F44BC068
:10480000F801FF27EB5EFE4FE491E33011F150F425
:10481000E130C9F0E230D1F584B5806284BDE8BCF6
:104820000C940A2EE73001F1E83039F1E43071F5EB
:1048300080918000806280938000F0928B00E092F3
:104840008A000C940A2E84B5806884BDE7BC0C9461
:104850000A2E80918000806880938000F092890009
:10486000E09288000C940A2E8091B00080688093BA
:10487000B000E092B3000C940A2E8091B0008062E8
:104880008093B000E092B4000C940A2E20E8E21667
:10489000F1040CF4AACF61E0A9CFBE016F5F7F4F96
:1048A000888D998D0E94090D60E089810E940A1E01
:1048B00089810E94461E69817A816E30710514F4E7
:1048C0000C940A2EAC018CEB91E00E941B0C0C9412
:1048D0000A2E9E012F5F3F4FAE01465F5F4FBE0124
:1048E000605F7F4F888D998D0E94950CE888F988CC
:1048F00089809A802A853B85032E000C440B550B3A
:10490000A12CB12C211531054105510531F4C5010A
:10491000B4010E945D1E0C940A2E60E472E48FE0E4
:1049200090E00E94D03429013A01DA01C901B6951C
:10493000A7959795879589A39AA3ABA3BCA3C70115
:104940009927FC01E752FF4FF49089509F4FFC01DB
:104950002491E22FF0E0EE0FFF1FE351FF4F05918E
:104960001491FC018491E82FF0E0EE0FFF1FE55F4A
:10497000FE4FA591B4918C918F298C930E941120A8
:104980006DA37EA38FA398A7EF2CE094620129A1C9
:104990003AA1C21AD30A0E941120DC01CB012DA139
:1049A0003EA14FA158A5821B930BA40BB50B8815F4
:1049B0009905AA05BB0510F00C940A2ED8018C911C
:1049C0008F298C9389A19AA10E94C71AF80180812E
:1049D0008E218083C6010E94C71ADDCF85E10E9427
:1049E000461E8C016FEB71E083E593E00E94E711B6
:1049F00062E072E083E593E00E94E711B801110FD5
:104A0000880B990B0E94A33320E030E040E85AE382
:104A10000E94023426E636E646EA50E40E9402345A
:104A20009B01AC010E946B3542E00C94FF2DE88D98
:104A3000F98D1081BE01665F7F4FDE011196AE01D8
:104A4000405F5F4F9E012E5E3F4FCE014496113472
:104A5000C1F4BF93AF937F936F935F934F933F9353
:104A60002F939F938F9382EC91E09F938F93FF936B
:104A7000EF930E941A398C899D890E969D8B8C8BA1
:104A800012C0BF93AF937F936F935F934F933F9306
:104A90002F939F938F9383EC91E09F938F93FF933A
:104AA000EF930E941A390FB6F894DEBF0FBECDBF48
:104AB000D980EA84F8880A891B898C890E94AB1600
:104AC00001151105B1F400E010E080917F04909190
:104AD00080040817190730F42D2D4E2D6F2DC801B5
:104AE0000E946A160F5F1F4F011551E0150769F705
:104AF0000EC0C801019720917F0430918004821775
:104B0000930728F42D2D4E2D6F2D0E946A1680914B
:104B1000850490918604892B11F40C940A2E0E942E
:104B2000EC1F00918B0410918C0420918D04309126
:104B30008E04DC01CB01801B910BA20BB30BC2973F
:104B4000A105B10560F3F8948091810490918204ED
:104B50009F8B8E8BE0918504F0918604DF01119686
:104B6000808188A390917D04E0918F04F09190045E
:104B700080919104992309F42EC09081982B9F8FE6
:104B80009081809589238E8F8E8D8B8F88E08A8F80
:104B90004F8D5E8D68A13A8D2B8D8E899F894083C4
:104BA00067FD242F3A952083252F39F0661F00C01A
:104BB00000005083000000C0F2CF38E06D915083B8
:104BC0000000019761F7F0939004E0938F0468A3CD
:104BD0003A8F2B8F38C09081982B9F8F9081809532
:104BE00089238E8F8E8D8D8F88E08C8F4F8D5E8D7B
:104BF00068A13C8D2D8D8E899F89408367FD242F70
:104C000000C000C0208300C000C000C000C000C0C1
:104C100050830000252F3A9541F0661F000000C028
:104C200000C000C000C000C0E8CF38E06D9100C0F7
:104C3000508300C0019709F7F0939004E0938F042C
:104C400068A33C8F2D8F9F8B8E8B78940E94EC1FD6
:104C500060938B0470938C0480938D0490938E04E6
:104C60000C940A2EBE016F5F7F4F888D998D0E9434
:104C7000090D60E089810E940A1E89810E94431DFE
:104C800041E050E0892B11F040E050E069817A81E9
:104C900083ED91E01ACEE88CF98CF70101900020A9
:104CA000E9F731978F010E191F090E949B1D2CE710
:104CB000C22E24E0D22EECE6F4E011921192CE1630
:104CC000DF06D9F781E08093650480936604109233
:104CD000680481E090E0909364048093630490936F
:104CE0006204809361040530110584F410925E041F
:104CF00010925D041092600410925F04B70181E588
:104D000094E00E94E7110E94E21A2DC08EEF9FEFFF
:104D1000801B910B25E0289F5001299FB00C112486
:104D200000E010E0ECE6F4E011921192CE16DF06FE
:104D3000D9F710935E0400935D0410926004109202
:104D40005F04B70181E594E00E94E7110E94E21A36
:104D500064E670E080E090E00E945D1E0150110961
:104D60000A151B05FCF687ED91E052C7C88CD98C5B
:104D700005E612E0760180E2E80EF11CD6018C9186
:104D80008093020111968C911197809303011296E2
:104D90008C9112978093000113968C91809301015E
:104DA00040E150E060E070E080E091E00E94AF30D0
:104DB000F801619371938F01F4E0CF0ED11CEC14D4
:104DC000FD04E1F60E949B1DECE6F4E011921192C5
:104DD00024E0EC37F207D1F7B12CE12CF12C67017C
:104DE000CC0CDD1C00E010E0C80187709927892BEE
:104DF00011F0BB0C0BC0F80183E0F595E7958A959F
:104E0000E1F7EC0DFD1DEB59FD4FB080B7FE08C07A
:104E100021E030E0A701B80181E594E00E940A0595
:104E20000F5F1F4F00311105F9F63FEFE31AF30A48
:104E300048E0E416F10499F60E94E21AEBC6CE01AE
:104E400001969F938F9309969F938F9306969F93B6
:104E50008F9302969F938F9302969F938F9383ECE9
:104E600091E09F938F93898D8F93888D8F930E946C
:104E70001A39E980FA800A851B8588889988AA886A
:104E8000BB88CC88DD880E949B1D9401A501B601DA
:104E900081E594E00E942A040E94E21A08C4CE012F
:104EA00001969F938F9309969F938F9306969F9356
:104EB0008F9389EC91E09F938F93898D8F93888D49
:104EC0008F930E941A3909811A81DA84E09077025F
:104ED00068898E2D0E946C1DF09075026D2D8F2DAE
:104EE0000E946C1DB801110F880B990B0E945D1E6A
:104EF00061E08E2D0E946C1D61E08F2D0E946C1D63
:104F0000D6C3CE0101969F938F9309969F938F935B
:104F100006969F938F9389EC91E09F938F93898D51
:104F20008F93888D8F930E941A396A857B85CB0178
:104F3000770FAA0BBB0BBC01CD01BBE0660F771F3F
:104F4000881F991FBA95D1F728E631E040E050E07C
:104F50000E94F23449015A019981990F990F990FD2
:104F600080E06CE370E00E940437AB017A836983D0
:104F7000888999890FB6F894DEBF0FBECDBF813006
:104F8000910551F4A4EFEA2EFF24F39400E010E021
:104F90009801C501B4010AC0029751F47B01950143
:104FA000840144EF51E060E070E0CB010E942018E2
:104FB0008BED91E02DC69F938F938FEC91E09F93A3
:104FC0008F933F932F930E941A3969817A81072E1C
:104FD000000C880B990B0E94A33320E030E044E3DF
:104FE00053E40E94D73523EC35EF48E450E40E94A7
:104FF00002342091840530918505409186055091B9
:1050000087050E94023420918805309189054091DE
:105010008A0550918B050E94023420E030E040E088
:105020005FE30E9402340E944936E4EFEE2EFF2433
:10503000F3948B019C0144EF51E00E94201885EE0F
:1050400091E00E9420170F900F900F900F900F90FB
:105050000F90E0C59F938F93CE010A969F938F93F5
:105060008CEC91E09F938F93898D8F93888D8F9394
:105070000E941A396A857B85072E000C880B990BD4
:105080000E94A33320E030E048EC52E40E94D73580
:1050900069A37AA38BA39CA39B01AC016AE077ED83
:1050A00083EA9CE30E94D73569A77AA78BA79CA7C0
:1050B00069817A81072E000C880B990B0E94A3331B
:1050C000905820E030E044E353E40E94D7352BEDC4
:1050D0003FE049E450E40E9402346DA37EA38FA315
:1050E00098A720E030E040E05FE360918805709190
:1050F000890580918A0590918B050E9402346DA7E5
:105100007EA78FA798AB29A13AA14BA15CA10E94D1
:10511000D7356B017C018090840590908505A09027
:105120008605B09087059B01AC0160E070E080E8E7
:105130009FE30E946A3529A53AA54BA55CA50E946C
:105140000234A50194010E9402342B013C0120E0AD
:1051500030E040E85FE3C701B6010E946B3529A546
:105160003AA54BA55CA50E940234A50194010E94BA
:1051700002346B017C012DA53EA54FA558A969A15C
:105180007AA18BA19CA10E946A352DA13EA14FA1BD
:1051900058A50E940234A50194010E94023469A717
:1051A0007AA78BA79CA78DA19EA1AFA1B8A5B05847
:1051B0008DA39EA3AFA3B8A72DA53EA54FA558A923
:1051C00069A17AA18BA19CA10E946B359B01AC01C6
:1051D0006DA17EA18FA198A50E940234A501940122
:1051E0000E94023469A37AA38BA39CA30FB6F89400
:1051F000DEBF0FBECDBF20E030E0A901C301B20188
:105200000E947F3653014201181624F0B7FAB09479
:10521000B7F8B09420E030E0A901C701B6010E94C0
:105220007F36A501940118160CF43BC5C701B601E1
:1052300090580E949C3387FF21C020E030E0A901F4
:10524000C301B2010E947F3618165CF420E030E002
:105250004AEF53E4C301B2010E947F3618165CF096
:105260000DC020E030E04AEF53ECC301B2010E94D0
:105270009C3387FF03C0A301920120C020E030E0EF
:10528000A901C701B6010E947F3618165CF420E020
:1052900030E04AEF53E4C701B6010E947F3618168A
:1052A0005CF024C020E030E04AEF53ECC701B601C7
:1052B0000E949C3387FF1AC0A701960160E070E04E
:1052C0008AEF93E40E94D7354B015C019B01AC014E
:1052D000C301B2010E9402342B013C01A5019401DB
:1052E000C701B6010E9402346B017C0169A57AA551
:1052F0008BA59CA50E9449360091F6041091F704F5
:105300002091F8043091F904DC01CB01800F911F4A
:10531000A21FB31F0091FA041091FB042091FC041A
:105320003091FD0480179107A207B30761F08093C5
:10533000FA049093FB04A093FC04B093FD048BEE5D
:1053400094E00E94FE122091FE043091FF044091EF
:10535000000550910105C301B2010E949C338823CE
:1053600031F0B301A2018BEE94E00E94411269A1D9
:105370007AA18BA19CA10E9449360091B2041091A0
:10538000B3042091B4043091B504DC01CB01800F4B
:10539000911FA21FB31F0091B6041091B704209172
:1053A000B8043091B90480179107A207B30761F0E0
:1053B0008093B6049093B704A093B804B093B90453
:1053C00087EA94E00E94FE122091BA043091BB0457
:1053D0004091BC045091BD04C701B6010E949C33AA
:1053E000882331F0B701A60187EA94E00E944112B8
:1053F0004091FA045091FB046091FC047091FD040B
:105400008091F6049091F704A091F804B091F9040A
:10541000481759076A077B0709F02BC44091B60467
:105420005091B7046091B8047091B9048091B204AE
:105430009091B304A091B404B091B50448175907F2
:105440006A077B0709F015C480917C0590917D0562
:10545000A0917E05B0917F058093F6049093F704A8
:10546000A093F804B093F9048093FA049093FB049A
:10547000A093FC04B093FD0410921E0510921F052A
:10548000109220051092210510920E0510920F0522
:1054900010921005109211051092FE041092FF0454
:1054A0001092000510920105809180059091810570
:1054B000A0918205B09183058093B2049093B304C8
:1054C000A093B404B093B5048093B6049093B7044A
:1054D000A093B804B093B9041092DA041092DB04DC
:1054E0001092DC041092DD041092CA041092CB04D6
:1054F0001092CC041092CD041092BA041092BB0406
:105500001092BC041092BD0480E192E081C3888DAA
:10551000998D0E94A43160938405709385058093D2
:1055200086059093870576C3888D998D1B861A868C
:105530001A821982AE014F5F5F4FBE01665F7F4FD7
:105540000E94D10C29813A818A859B85F894FC01BF
:10555000E15BFC4F41E04083880F991FFC01E35A57
:10556000FD4F318320834EC1F89410925E02109259
:105570005D021092600210925F021092620210921D
:10558000610210926402109263023CC19E012F5F7F
:105590003F4FAE01465F5F4FBE01605F7F4F888D1A
:1055A000998D0E94950C69817A818A859B852889CD
:1055B00039896115710599F4F89441E040934F03DE
:1055C00040935003109251031092520330935E02A5
:1055D00020935D029093600280935F0213C1F89460
:1055E00041E040934F0340935003109251031092B7
:1055F000520330935E0220935D0290936002809389
:105600005F027894072E000C880B990B0E945D1E98
:10561000F89410925E0210925D0210926002109255
:105620005F02109262021092610210926402109264
:10563000630278948AEE91E0EBC2CE0101969F93CB
:105640008F9309969F938F9306969F938F930296BD
:105650009F938F9386EC91E09F938F93898D8F9387
:10566000888D8F930E941A3929813A814A855B85FA
:1056700068897989EA89FB89F89481E080934F03EE
:10568000809350038093510380935203F0935E0202
:10569000E0935D027093600260935F025093620238
:1056A00040936102309364022093630278940FB6B2
:1056B000F894DEBF0FBECDBFADC2288D398D198ADB
:1056C000188A1B861A861A821982CE0101969F9328
:1056D0008F9309969F938F9306969F938F9389EC50
:1056E00091E09F938F933F932F930E941A390981E2
:1056F0001A816A857B85072E000C880B990B0E9406
:10570000A33323EF34E045E35FE30E94D7350E94E3
:1057100049366B017C0168897989072E000C880B5A
:10572000990B0E94A33323EF34E045E35FE30E942B
:10573000D7350E944936AB014C0D5D1D9B012C19DC
:105740003D09EE27FF27EC19FD09E61BF70BC61AEA
:10575000D70A200F311FB8016E0F7F1FC00ED11E58
:10576000040F151F0FB6F894DEBF0FBECDBF0F3F5D
:10577000110519F014F00FEF10E02F3F310519F06B
:1057800014F02FEF30E06F3F710519F014F06FEF58
:1057900070E0C6018F3F910519F014F08FEF90E093
:1057A000F89441E040934F034093500340935103DA
:1057B0004093520301305FEF150714F401E01FEF2F
:1057C00010935E0200935D022130AFEF3A0714F4AC
:1057D00021E03FEF3093600220935F026130BFEF22
:1057E0007B0714F461E07FEF7093620260936102C3
:1057F0008130EFEF9E0714F481E09FEF90936402F5
:1058000080936302789406C29E012F5F3F4FAE01E2
:10581000465F5F4FBE01605F7F4F888D998D0E940C
:10582000950CD980EA84FB848889998926E0289F91
:105830008001299F100D11240D5C1A4FD801EC91A5
:10584000B8E0EB9FF0011124E051FC4F208126FDD0
:105850003BC0FC0132C09E012F5F3F4FAE01465F4F
:105860005F4FBE01605F7F4F888D998D0E94950CC0
:10587000D980288939898A859B858A559109880F1D
:10588000991F63E070E00E9404377B01EAE5EE0EA9
:10589000F11C86E0829F8001839F100D11240D5C16
:1058A0001A4FD801EC91B8E0EB9FF0011124E051C0
:1058B000FC4F808186FD08C0F901EC5CFE4F6081E1
:1058C00070E0C8010E94B1084D2DB701C8010E94C7
:1058D000A607A0C1E7EEF0E0849180933B03E5E0EA
:1058E000F1E08491E82FF0E0EE0FFF1FE351FF4F4E
:1058F0008591949190933D0380933C03E9EEF0E011
:10590000849180933E03E7E0F1E08491E82FF0E09A
:10591000EE0FFF1FE351FF4F859194919093400349
:1059200080933F03E8EEF0E0849180934103F2011D
:105930008491E82FF0E0EE0FFF1FE351FF4F8591B8
:1059400094919093430380934203F3018491809355
:105950004403F4018491E82FF0E0EE0FFF1FE153C0
:10596000FF4F85919491909346038093450361E0A6
:105970008EE00E940A1E61E08FE00E940A1E61E034
:1059800080E10E940A1E60E081E10E940A1E61E03F
:1059900081E10E946C1D0E94B3190E94C21980E02F
:1059A0000E94E11E80E00E94E11E809122039FEB95
:1059B000980F923078F0833769F0893759F064EFA7
:1059C00071E080E090E00E945D1E0150110909F035
:1059D00081CFA4C081E080934B039BE0E92EF12CA2
:1059E00065E089E291E00E94971EC1010197F1F7FD
:1059F0000E94B3190E94C2190E94D21AC1010197D4
:105A0000F1F78EE3C82E81E0D82E9E012F5F3F4F25
:105A10005901D6018D916D010E94561AF5018193AD
:105A20005F01F7E4CF16F1E0DF0699F70E94A419B1
:105A30008C8180934C0369E080E291E00E94971E84
:105A400065E08BE191E00E94971E21E020934D03D9
:105A500069E082E191E00E94971E31E030934E03AD
:105A600069E089E091E00E94971E80E00E94E11EBB
:105A700080912203893769F0833759F041E0E41AB5
:105A8000F10809F49CCF80914B038F5F80934B0307
:105A9000A7CF81E0809379026FEE71E083E593E018
:105AA0000E94E7116091220370E080E090E040E105
:105AB0000E94531580914C03833061F0813031F4A2
:105AC00080912203823441F464E009C08C3031F4C7
:105AD00063E005C061E003C062E001C060E070E027
